{
  "transactions": [
    {
      "hash": "0xd13fdf8b7c4e982e1eb54ec444cc208f37a4dce4b51b7e9088fc75b6a9886e17",
      "transactionType": "CALL",
      "contractName": null,
      "contractAddress": "0xfc653ba52d3d4919fc7806a621ef60b55ebc2859",
      "function": "createMarket(string,uint256,bool)",
      "arguments": [
        "Argentina to Win World Cup 2026?",
        "1781193600",
        "false"
      ],
      "transaction": {
        "from": "0xed1dc894220532920b7ca82d8c1758c3f86e2228",
        "to": "0xfc653ba52d3d4919fc7806a621ef60b55ebc2859",
        "gas": "0x28287",
        "value": "0x0",
        "input": "0x7d6563590000000000000000000000000000000000000000000000000000000000000060000000000000000000000000000000000000000000000000000000006a2adb8000000000000000000000000000000000000000000000000000000000000000000000000000000000000000000000000000000000000000000000000000000020417267656e74696e6120746f2057696e20576f726c642043757020323032363f",
        "nonce": "0x0",
        "chainId": "0xaa044c"
      },
      "additionalContracts": [],
      "isFixedGasLimit": false
    },
    {
      "hash": "0x37ecad5530ac968e7ce0728589b6a962f3a4c8bf3e9ae48eed36c2edbbf6a4d9",
      "transactionType": "CALL",
      "contractName": null,
      "contractAddress": "0xfc653ba52d3d4919fc7806a621ef60b55ebc2859",
      "function": "createMarket(string,uint256,bool)",
      "arguments": [
        "France to Win World Cup 2026?",
        "1781193600",
        "false"
      ],
      "transaction": {
        "from": "0xed1dc894220532920b7ca82d8c1758c3f86e2228",
        "to": "0xfc653ba52d3d4919fc7806a621ef60b55ebc2859",
        "gas": "0x1ae16",
        "value": "0x0",
        "input": "0x7d6563590000000000000000000000000000000000000000000000000000000000000060000000000000000000000000000000000000000000000000000000006a2adb800000000000000000000000000000000000000000000000000000000000000000000000000000000000000000000000000000000000000000000000000000001d4672616e636520746f2057696e20576f726c642043757020323032363f000000",
        "nonce": "0x1",
        "chainId": "0xaa044c"
      },
      "additionalContracts": [],
      "isFixedGasLimit": false
    },
    {
      "hash": "0xe3f79e398d0c1f403d17510fab09951dd792151f31e7740a7c655e0d9b70f9d6",
      "transactionType": "CALL",
      "contractName": null,
      "contractAddress": "0xfc653ba52d3d4919fc7806a621ef60b55ebc2859",
      "function": "createMarket(string,uint256,bool)",
      "arguments": [
        "England to Win World Cup 2026?",
        "1781193600",
        "false"
      ],
      "transaction": {
        "from": "0xed1dc894220532920b7ca82d8c1758c3f86e2228",
        "to": "0xfc653ba52d3d4919fc7806a621ef60b55ebc2859",
        "gas": "0x1ae25",
        "value": "0x0",
        "input": "0x7d6563590000000000000000000000000000000000000000000000000000000000000060000000000000000000000000000000000000000000000000000000006a2adb800000000000000000000000000000000000000000000000000000000000000000000000000000000000000000000000000000000000000000000000000000001e456e676c616e6420746f2057696e20576f726c642043757020323032363f0000",
        "nonce": "0x2",
        "chainId": "0xaa044c"
      },
      "additionalContracts": [],
      "isFixedGasLimit": false
    },
    {
      "hash": "0x21f43e5ded034a417bbff40f1d80179417e3418f880bf93b7e23d3313a0424a3",
      "transactionType": "CALL",
      "contractName": null,
      "contractAddress": "0xfc653ba52d3d4919fc7806a621ef60b55ebc2859",
      "function": "createMarket(string,uint256,bool)",
      "arguments": [
        "Brazil to Win World Cup 2026?",
        "1781193600",
        "false"
      ],
      "transaction": {
        "from": "0xed1dc894220532920b7ca82d8c1758c3f86e2228",
        "to": "0xfc653ba52d3d4919fc7806a621ef60b55ebc2859",
        "gas": "0x1ae16",
        "value": "0x0",
        "input": "0x7d6563590000000000000000000000000000000000000000000000000000000000000060000000000000000000000000000000000000000000000000000000006a2adb800000000000000000000000000000000000000000000000000000000000000000000000000000000000000000000000000000000000000000000000000000001d4272617a696c20746f2057696e20576f726c642043757020323032363f000000",
        "nonce": "0x3",
        "chainId": "0xaa044c"
      },
      "additionalContracts": [],
      "isFixedGasLimit": false
    },
    {
      "hash": "0x89f4c1c6086e9b629f66d708977273039e7468d3c1f48d4ef403a1128c30c194",
      "transactionType": "CALL",
      "contractName": null,
      "contractAddress": "0xfc653ba52d3d4919fc7806a621ef60b55ebc2859",
      "function": "createMarket(string,uint256,bool)",
      "arguments": [
        "Spain to Win World Cup 2026?",
        "1781193600",
        "false"
      ],
      "transaction": {
        "from": "0xed1dc894220532920b7ca82d8c1758c3f86e2228",
        "to": "0xfc653ba52d3d4919fc7806a621ef60b55ebc2859",
        "gas": "0x1ae05",
        "value": "0x0",
        "input": "0x7d6563590000000000000000000000000000000000000000000000000000000000000060000000000000000000000000000000000000000000000000000000006a2adb800000000000000000000000000000000000000000000000000000000000000000000000000000000000000000000000000000000000000000000000000000001c537061696e20746f2057696e20576f726c642043757020323032363f00000000",
        "nonce": "0x4",
        "chainId": "0xaa044c"
      },
      "additionalContracts": [],
      "isFixedGasLimit": false
    },
    {
      "hash": "0x81d1456877cdb280d52913b3a9d253337b7d1f827832d397ef40ac95ec7918d2",
      "transactionType": "CALL",
      "contractName": null,
      "contractAddress": "0xfc653ba52d3d4919fc7806a621ef60b55ebc2859",
      "function": "createMarket(string,uint256,bool)",
      "arguments": [
        "USA to Reach Semi-Finals?",
        "1781193600",
        "false"
      ],
      "transaction": {
        "from": "0xed1dc894220532920b7ca82d8c1758c3f86e2228",
        "to": "0xfc653ba52d3d4919fc7806a621ef60b55ebc2859",
        "gas": "0x1add3",
        "value": "0x0",
        "input": "0x7d6563590000000000000000000000000000000000000000000000000000000000000060000000000000000000000000000000000000000000000000000000006a2adb800000000000000000000000000000000000000000000000000000000000000000000000000000000000000000000000000000000000000000000000000000001955534120746f2052656163682053656d692d46696e616c733f00000000000000",
        "nonce": "0x5",
        "chainId": "0xaa044c"
      },
      "additionalContracts": [],
      "isFixedGasLimit": false
    },
    {
      "hash": "0xd6608ba90c59b69c034ff208266defc9bc9b69cbf69307ad7cd73e3a84554dea",
      "transactionType": "CALL",
      "contractName": null,
      "contractAddress": "0xfc653ba52d3d4919fc7806a621ef60b55ebc2859",
      "function": "createMarket(string,uint256,bool)",
      "arguments": [
        "Morocco to Reach Quarter-Finals?",
        "1781193600",
        "false"
      ],
      "transaction": {
        "from": "0xed1dc894220532920b7ca82d8c1758c3f86e2228",
        "to": "0xfc653ba52d3d4919fc7806a621ef60b55ebc2859",
        "gas": "0x246a3",
        "value": "0x0",
        "input": "0x7d6563590000000000000000000000000000000000000000000000000000000000000060000000000000000000000000000000000000000000000000000000006a2adb80000000000000000000000000000000000000000000000000000000000000000000000000000000000000000000000000000000000000000000000000000000204d6f726f63636f20746f20526561636820517561727465722d46696e616c733f",
        "nonce": "0x6",
        "chainId": "0xaa044c"
      },
      "additionalContracts": [],
      "isFixedGasLimit": false
    },
    {
      "hash": "0xeb45a3b2f5a5e7bf5fd448108111eba9c785d8ec8d9e08ca5cd68225f24de971",
      "transactionType": "CALL",
      "contractName": null,
      "contractAddress": "0xfc653ba52d3d4919fc7806a621ef60b55ebc2859",
      "function": "createMarket(string,uint256,bool)",
      "arguments": [
        "Final Match Over 2.5 Goals?",
        "1785110400",
        "false"
      ],
      "transaction": {
        "from": "0xed1dc894220532920b7ca82d8c1758c3f86e2228",
        "to": "0xfc653ba52d3d4919fc7806a621ef60b55ebc2859",
        "gas": "0x1adf4",
        "value": "0x0",
        "input": "0x7d6563590000000000000000000000000000000000000000000000000000000000000060000000000000000000000000000000000000000000000000000000006a669f800000000000000000000000000000000000000000000000000000000000000000000000000000000000000000000000000000000000000000000000000000001b46696e616c204d61746368204f76657220322e3520476f616c733f0000000000",
        "nonce": "0x7",
        "chainId": "0xaa044c"
      },
      "additionalContracts": [],
      "isFixedGasLimit": false
    },
    {
      "hash": "0x60961fec4f6695f704e9af521b14bcf1402ce66110443179b8143c5020de6f8f",
      "transactionType": "CALL",
      "contractName": null,
      "contractAddress": "0xfc653ba52d3d4919fc7806a621ef60b55ebc2859",
      "function": "createMarket(string,uint256,bool)",
      "arguments": [
        "Argentina to beat Canada (Group A)",
        "1781208000",
        "true"
      ],
      "transaction": {
        "from": "0xed1dc894220532920b7ca82d8c1758c3f86e2228",
        "to": "0xfc653ba52d3d4919fc7806a621ef60b55ebc2859",
        "gas": "0x33944",
        "value": "0x0",
        "input": "0x7d6563590000000000000000000000000000000000000000000000000000000000000060000000000000000000000000000000000000000000000000000000006a2b13c000000000000000000000000000000000000000000000000000000000000000010000000000000000000000000000000000000000000000000000000000000022417267656e74696e6120746f20626561742043616e616461202847726f7570204129000000000000000000000000000000000000000000000000000000000000",
        "nonce": "0x8",
        "chainId": "0xaa044c"
      },
      "additionalContracts": [],
      "isFixedGasLimit": false
    },
    {
      "hash": "0xf0441d89423ac8aba638ba4a381132359aaad5765280d522e62c9511181f6630",
      "transactionType": "CALL",
      "contractName": null,
      "contractAddress": "0xfc653ba52d3d4919fc7806a621ef60b55ebc2859",
      "function": "createMarket(string,uint256,bool)",
      "arguments": [
        "Portugal to beat Argentina (Group A)",
        "1781380800",
        "true"
      ],
      "transaction": {
        "from": "0xed1dc894220532920b7ca82d8c1758c3f86e2228",
        "to": "0xfc653ba52d3d4919fc7806a621ef60b55ebc2859",
        "gas": "0x33967",
        "value": "0x0",
        "input": "0x7d6563590000000000000000000000000000000000000000000000000000000000000060000000000000000000000000000000000000000000000000000000006a2db6c000000000000000000000000000000000000000000000000000000000000000010000000000000000000000000000000000000000000000000000000000000024506f72747567616c20746f206265617420417267656e74696e61202847726f757020412900000000000000000000000000000000000000000000000000000000",
        "nonce": "0x9",
        "chainId": "0xaa044c"
      },
      "additionalContracts": [],
      "isFixedGasLimit": false
    },
    {
      "hash": "0xa99ebaec1c9aed6b5ac4a5663ca7e48d26bed1a38d5419597dd26cdccee6a53d",
      "transactionType": "CALL",
      "contractName": null,
      "contractAddress": "0xfc653ba52d3d4919fc7806a621ef60b55ebc2859",
      "function": "createMarket(string,uint256,bool)",
      "arguments": [
        "Canada to beat Portugal (Group A)",
        "1781553600",
        "true"
      ],
      "transaction": {
        "from": "0xed1dc894220532920b7ca82d8c1758c3f86e2228",
        "to": "0xfc653ba52d3d4919fc7806a621ef60b55ebc2859",
        "gas": "0x30b59",
        "value": "0x0",
        "input": "0x7d6563590000000000000000000000000000000000000000000000000000000000000060000000000000000000000000000000000000000000000000000000006a3059c00000000000000000000000000000000000000000000000000000000000000001000000000000000000000000000000000000000000000000000000000000002143616e61646120746f206265617420506f72747567616c202847726f757020412900000000000000000000000000000000000000000000000000000000000000",
        "nonce": "0xa",
        "chainId": "0xaa044c"
      },
      "additionalContracts": [],
      "isFixedGasLimit": false
    },
    {
      "hash": "0x65fd46e73e4a3a9fe42b3f88a74611254d8d6c639bd9ef1c2991ecbb108ea997",
      "transactionType": "CALL",
      "contractName": null,
      "contractAddress": "0xfc653ba52d3d4919fc7806a621ef60b55ebc2859",
      "function": "createMarket(string,uint256,bool)",
      "arguments": [
        "France to beat Mexico (Group B)",
        "1781294400",
        "true"
      ],
      "transaction": {
        "from": "0xed1dc894220532920b7ca82d8c1758c3f86e2228",
        "to": "0xfc653ba52d3d4919fc7806a621ef60b55ebc2859",
        "gas": "0x219a6",
        "value": "0x0",
        "input": "0x7d6563590000000000000000000000000000000000000000000000000000000000000060000000000000000000000000000000000000000000000000000000006a2c65400000000000000000000000000000000000000000000000000000000000000001000000000000000000000000000000000000000000000000000000000000001f4672616e636520746f2062656174204d657869636f202847726f757020422900",
        "nonce": "0xb",
        "chainId": "0xaa044c"
      },
      "additionalContracts": [],
      "isFixedGasLimit": false
    },
    {
      "hash": "0x6007dd8bd6841787c87279c30e8d03a2f7d2d1745e52cc0c5e44b4eaa1789fc1",
      "transactionType": "CALL",
      "contractName": null,
      "contractAddress": "0xfc653ba52d3d4919fc7806a621ef60b55ebc2859",
      "function": "createMarket(string,uint256,bool)",
      "arguments": [
        "Mexico to beat Germany (Group B)",
        "1781467200",
        "true"
      ],
      "transaction": {
        "from": "0xed1dc894220532920b7ca82d8c1758c3f86e2228",
        "to": "0xfc653ba52d3d4919fc7806a621ef60b55ebc2859",
        "gas": "0x2b864",
        "value": "0x0",
        "input": "0x7d6563590000000000000000000000000000000000000000000000000000000000000060000000000000000000000000000000000000000000000000000000006a2f0840000000000000000000000000000000000000000000000000000000000000000100000000000000000000000000000000000000000000000000000000000000204d657869636f20746f2062656174204765726d616e79202847726f7570204229",
        "nonce": "0xc",
        "chainId": "0xaa044c"
      },
      "additionalContracts": [],
      "isFixedGasLimit": false
    },
    {
      "hash": "0x210909428d499ff6cc978f21ca3aabaf23ba9f4ef26e7edda87ecedfa8493d64",
      "transactionType": "CALL",
      "contractName": null,
      "contractAddress": "0xfc653ba52d3d4919fc7806a621ef60b55ebc2859",
      "function": "createMarket(string,uint256,bool)",
      "arguments": [
        "Germany to beat France (Group B)",
        "1781640000",
        "true"
      ],
      "transaction": {
        "from": "0xed1dc894220532920b7ca82d8c1758c3f86e2228",
        "to": "0xfc653ba52d3d4919fc7806a621ef60b55ebc2859",
        "gas": "0x2b864",
        "value": "0x0",
        "input": "0x7d6563590000000000000000000000000000000000000000000000000000000000000060000000000000000000000000000000000000000000000000000000006a31ab40000000000000000000000000000000000000000000000000000000000000000100000000000000000000000000000000000000000000000000000000000000204765726d616e7920746f2062656174204672616e6365202847726f7570204229",
        "nonce": "0xd",
        "chainId": "0xaa044c"
      },
      "additionalContracts": [],
      "isFixedGasLimit": false
    },
    {
      "hash": "0x9566af4d41f5c075e9ec24dae1139a0f344510dee020fac4e737f0fbff2b6a09",
      "transactionType": "CALL",
      "contractName": null,
      "contractAddress": "0xfc653ba52d3d4919fc7806a621ef60b55ebc2859",
      "function": "createMarket(string,uint256,bool)",
      "arguments": [
        "Brazil to beat Morocco (Group C)",
        "1781294400",
        "true"
      ],
      "transaction": {
        "from": "0xed1dc894220532920b7ca82d8c1758c3f86e2228",
        "to": "0xfc653ba52d3d4919fc7806a621ef60b55ebc2859",
        "gas": "0x2b864",
        "value": "0x0",
        "input": "0x7d6563590000000000000000000000000000000000000000000000000000000000000060000000000000000000000000000000000000000000000000000000006a2c6540000000000000000000000000000000000000000000000000000000000000000100000000000000000000000000000000000000000000000000000000000000204272617a696c20746f2062656174204d6f726f63636f202847726f7570204329",
        "nonce": "0xe",
        "chainId": "0xaa044c"
      },
      "additionalContracts": [],
      "isFixedGasLimit": false
    },
    {
      "hash": "0xc94d7126e48b96f9f38c874a4000d1005e53c4ec02afb68914b31944786acfde",
      "transactionType": "CALL",
      "contractName": null,
      "contractAddress": "0xfc653ba52d3d4919fc7806a621ef60b55ebc2859",
      "function": "createMarket(string,uint256,bool)",
      "arguments": [
        "Morocco to beat Colombia (Group C)",
        "1781467200",
        "true"
      ],
      "transaction": {
        "from": "0xed1dc894220532920b7ca82d8c1758c3f86e2228",
        "to": "0xfc653ba52d3d4919fc7806a621ef60b55ebc2859",
        "gas": "0x33944",
        "value": "0x0",
        "input": "0x7d6563590000000000000000000000000000000000000000000000000000000000000060000000000000000000000000000000000000000000000000000000006a2f0840000000000000000000000000000000000000000000000000000000000000000100000000000000000000000000000000000000000000000000000000000000224d6f726f63636f20746f206265617420436f6c6f6d626961202847726f7570204329000000000000000000000000000000000000000000000000000000000000",
        "nonce": "0xf",
        "chainId": "0xaa044c"
      },
      "additionalContracts": [],
      "isFixedGasLimit": false
    },
    {
      "hash": "0xbaadcfc6e3cae303bb40e6a51c888161d069fa960f4003ab8e2bcf081513834a",
      "transactionType": "CALL",
      "contractName": null,
      "contractAddress": "0xfc653ba52d3d4919fc7806a621ef60b55ebc2859",
      "function": "createMarket(string,uint256,bool)",
      "arguments": [
        "Colombia to beat Brazil (Group C)",
        "1781640000",
        "true"
      ],
      "transaction": {
        "from": "0xed1dc894220532920b7ca82d8c1758c3f86e2228",
        "to": "0xfc653ba52d3d4919fc7806a621ef60b55ebc2859",
        "gas": "0x30b59",
        "value": "0x0",
        "input": "0x7d6563590000000000000000000000000000000000000000000000000000000000000060000000000000000000000000000000000000000000000000000000006a31ab4000000000000000000000000000000000000000000000000000000000000000010000000000000000000000000000000000000000000000000000000000000021436f6c6f6d62696120746f2062656174204272617a696c202847726f757020432900000000000000000000000000000000000000000000000000000000000000",
        "nonce": "0x10",
        "chainId": "0xaa044c"
      },
      "additionalContracts": [],
      "isFixedGasLimit": false
    },
    {
      "hash": "0xf0bebdace05c18edd644fe8ce58bd938dc0e688fb656ec5309fdeb87d935606b",
      "transactionType": "CALL",
      "contractName": null,
      "contractAddress": "0xfc653ba52d3d4919fc7806a621ef60b55ebc2859",
      "function": "createMarket(string,uint256,bool)",
      "arguments": [
        "England to beat USA (Group D)",
        "1781380800",
        "true"
      ],
      "transaction": {
        "from": "0xed1dc894220532920b7ca82d8c1758c3f86e2228",
        "to": "0xfc653ba52d3d4919fc7806a621ef60b55ebc2859",
        "gas": "0x21985",
        "value": "0x0",
        "input": "0x7d6563590000000000000000000000000000000000000000000000000000000000000060000000000000000000000000000000000000000000000000000000006a2db6c00000000000000000000000000000000000000000000000000000000000000001000000000000000000000000000000000000000000000000000000000000001d456e676c616e6420746f206265617420555341202847726f7570204429000000",
        "nonce": "0x11",
        "chainId": "0xaa044c"
      },
      "additionalContracts": [],
      "isFixedGasLimit": false
    },
    {
      "hash": "0xc69699d9188e9c62ba4ab948a4c80eb7fb391db112de60167999069edb16ca7b",
      "transactionType": "CALL",
      "contractName": null,
      "contractAddress": "0xfc653ba52d3d4919fc7806a621ef60b55ebc2859",
      "function": "createMarket(string,uint256,bool)",
      "arguments": [
        "USA to beat Netherlands (Group D)",
        "1781553600",
        "true"
      ],
      "transaction": {
        "from": "0xed1dc894220532920b7ca82d8c1758c3f86e2228",
        "to": "0xfc653ba52d3d4919fc7806a621ef60b55ebc2859",
        "gas": "0x30b59",
        "value": "0x0",
        "input": "0x7d6563590000000000000000000000000000000000000000000000000000000000000060000000000000000000000000000000000000000000000000000000006a3059c00000000000000000000000000000000000000000000000000000000000000001000000000000000000000000000000000000000000000000000000000000002155534120746f2062656174204e65746865726c616e6473202847726f757020442900000000000000000000000000000000000000000000000000000000000000",
        "nonce": "0x12",
        "chainId": "0xaa044c"
      },
      "additionalContracts": [],
      "isFixedGasLimit": false
    },
    {
      "hash": "0x65a9e915bec8221ac41111e2c54ab1c84aff5291d27dfffea2ef2f84cb2d5618",
      "transactionType": "CALL",
      "contractName": null,
      "contractAddress": "0xfc653ba52d3d4919fc7806a621ef60b55ebc2859",
      "function": "createMarket(string,uint256,bool)",
      "arguments": [
        "Netherlands to beat England (Group D)",
        "1781726400",
        "true"
      ],
      "transaction": {
        "from": "0xed1dc894220532920b7ca82d8c1758c3f86e2228",
        "to": "0xfc653ba52d3d4919fc7806a621ef60b55ebc2859",
        "gas": "0x30b9b",
        "value": "0x0",
        "input": "0x7d6563590000000000000000000000000000000000000000000000000000000000000060000000000000000000000000000000000000000000000000000000006a32fcc0000000000000000000000000000000000000000000000000000000000000000100000000000000000000000000000000000000000000000000000000000000254e65746865726c616e647320746f206265617420456e676c616e64202847726f7570204429000000000000000000000000000000000000000000000000000000",
        "nonce": "0x13",
        "chainId": "0xaa044c"
      },
      "additionalContracts": [],
      "isFixedGasLimit": false
    },
    {
      "hash": "0x687bb97b7153dac9cf42767853969d6080f4f9bea8da7b9b3317de38b4f34b06",
      "transactionType": "CALL",
      "contractName": null,
      "contractAddress": "0xfc653ba52d3d4919fc7806a621ef60b55ebc2859",
      "function": "createMarket(string,uint256,bool)",
      "arguments": [
        "Spain to beat Japan (Group E)",
        "1781380800",
        "true"
      ],
      "transaction": {
        "from": "0xed1dc894220532920b7ca82d8c1758c3f86e2228",
        "to": "0xfc653ba52d3d4919fc7806a621ef60b55ebc2859",
        "gas": "0x21985",
        "value": "0x0",
        "input": "0x7d6563590000000000000000000000000000000000000000000000000000000000000060000000000000000000000000000000000000000000000000000000006a2db6c00000000000000000000000000000000000000000000000000000000000000001000000000000000000000000000000000000000000000000000000000000001d537061696e20746f2062656174204a6170616e202847726f7570204529000000",
        "nonce": "0x14",
        "chainId": "0xaa044c"
      },
      "additionalContracts": [],
      "isFixedGasLimit": false
    },
    {
      "hash": "0x98be1212505347f884c57beecc0c4ac06dbfd7bc0eac0b89c8cd15ee292cc7c4",
      "transactionType": "CALL",
      "contractName": null,
      "contractAddress": "0xfc653ba52d3d4919fc7806a621ef60b55ebc2859",
      "function": "createMarket(string,uint256,bool)",
      "arguments": [
        "Japan to beat Uruguay (Group E)",
        "1781553600",
        "true"
      ],
      "transaction": {
        "from": "0xed1dc894220532920b7ca82d8c1758c3f86e2228",
        "to": "0xfc653ba52d3d4919fc7806a621ef60b55ebc2859",
        "gas": "0x219a6",
        "value": "0x0",
        "input": "0x7d6563590000000000000000000000000000000000000000000000000000000000000060000000000000000000000000000000000000000000000000000000006a3059c00000000000000000000000000000000000000000000000000000000000000001000000000000000000000000000000000000000000000000000000000000001f4a6170616e20746f20626561742055727567756179202847726f757020452900",
        "nonce": "0x15",
        "chainId": "0xaa044c"
      },
      "additionalContracts": [],
      "isFixedGasLimit": false
    },
    {
      "hash": "0x33b41f0d68a3d1f1c3b1c3917973fa0438e45202c2759b34dac2d3f8262c843b",
      "transactionType": "CALL",
      "contractName": null,
      "contractAddress": "0xfc653ba52d3d4919fc7806a621ef60b55ebc2859",
      "function": "createMarket(string,uint256,bool)",
      "arguments": [
        "Uruguay to beat Spain (Group E)",
        "1781726400",
        "true"
      ],
      "transaction": {
        "from": "0xed1dc894220532920b7ca82d8c1758c3f86e2228",
        "to": "0xfc653ba52d3d4919fc7806a621ef60b55ebc2859",
        "gas": "0x219a6",
        "value": "0x0",
        "input": "0x7d6563590000000000000000000000000000000000000000000000000000000000000060000000000000000000000000000000000000000000000000000000006a32fcc00000000000000000000000000000000000000000000000000000000000000001000000000000000000000000000000000000000000000000000000000000001f5572756775617920746f206265617420537061696e202847726f757020452900",
        "nonce": "0x16",
        "chainId": "0xaa044c"
      },
      "additionalContracts": [],
      "isFixedGasLimit": false
    },
    {
      "hash": "0x68deb97c9216a657ace894bc5466c222c6d13319d0ff59d8b01b29502ae30714",
      "transactionType": "CALL",
      "contractName": null,
      "contractAddress": "0xfc653ba52d3d4919fc7806a621ef60b55ebc2859",
      "function": "createMarket(string,uint256,bool)",
      "arguments": [
        "Belgium to beat Senegal (Group F)",
        "1781467200",
        "true"
      ],
      "transaction": {
        "from": "0xed1dc894220532920b7ca82d8c1758c3f86e2228",
        "to": "0xfc653ba52d3d4919fc7806a621ef60b55ebc2859",
        "gas": "0x30b59",
        "value": "0x0",
        "input": "0x7d6563590000000000000000000000000000000000000000000000000000000000000060000000000000000000000000000000000000000000000000000000006a2f08400000000000000000000000000000000000000000000000000000000000000001000000000000000000000000000000000000000000000000000000000000002142656c6769756d20746f20626561742053656e6567616c202847726f757020462900000000000000000000000000000000000000000000000000000000000000",
        "nonce": "0x17",
        "chainId": "0xaa044c"
      },
      "additionalContracts": [],
      "isFixedGasLimit": false
    },
    {
      "hash": "0x8e78bbe62b895cf80951eceb1b1b9926f23bfe1b65460d28c5e4848818b01769",
      "transactionType": "CALL",
      "contractName": null,
      "contractAddress": "0xfc653ba52d3d4919fc7806a621ef60b55ebc2859",
      "function": "createMarket(string,uint256,bool)",
      "arguments": [
        "Senegal to beat Croatia (Group F)",
        "1781640000",
        "true"
      ],
      "transaction": {
        "from": "0xed1dc894220532920b7ca82d8c1758c3f86e2228",
        "to": "0xfc653ba52d3d4919fc7806a621ef60b55ebc2859",
        "gas": "0x30b59",
        "value": "0x0",
        "input": "0x7d6563590000000000000000000000000000000000000000000000000000000000000060000000000000000000000000000000000000000000000000000000006a31ab400000000000000000000000000000000000000000000000000000000000000001000000000000000000000000000000000000000000000000000000000000002153656e6567616c20746f20626561742043726f61746961202847726f757020462900000000000000000000000000000000000000000000000000000000000000",
        "nonce": "0x18",
        "chainId": "0xaa044c"
      },
      "additionalContracts": [],
      "isFixedGasLimit": false
    },
    {
      "hash": "0x5d48ed077527173f2942dbaba65b34477e642bd25aabc0c32eea5da92be85025",
      "transactionType": "CALL",
      "contractName": null,
      "contractAddress": "0xfc653ba52d3d4919fc7806a621ef60b55ebc2859",
      "function": "createMarket(string,uint256,bool)",
      "arguments": [
        "Croatia to beat Belgium (Group F)",
        "1781812800",
        "true"
      ],
      "transaction": {
        "from": "0xed1dc894220532920b7ca82d8c1758c3f86e2228",
        "to": "0xfc653ba52d3d4919fc7806a621ef60b55ebc2859",
        "gas": "0x30b59",
        "value": "0x0",
        "input": "0x7d6563590000000000000000000000000000000000000000000000000000000000000060000000000000000000000000000000000000000000000000000000006a344e400000000000000000000000000000000000000000000000000000000000000001000000000000000000000000000000000000000000000000000000000000002143726f6174696120746f20626561742042656c6769756d202847726f757020462900000000000000000000000000000000000000000000000000000000000000",
        "nonce": "0x19",
        "chainId": "0xaa044c"
      },
      "additionalContracts": [],
      "isFixedGasLimit": false
    }
  ],
  "receipts": [
    {
      "status": "0x1",
      "cumulativeGasUsed": "0x28595",
      "logs": [
        {
          "address": "0xfc653ba52d3d4919fc7806a621ef60b55ebc2859",
          "topics": [
            "0xcf1703a582c2d33aca5304d8715a8032f0db94e24a996a016453b343ea02d26b",
            "0x0000000000000000000000000000000000000000000000000000000000000001"
          ],
          "data": "0x0000000000000000000000000000000000000000000000000000000000000060000000000000000000000000000000000000000000000000000000006a2adb8000000000000000000000000000000000000000000000000000000000000000000000000000000000000000000000000000000000000000000000000000000020417267656e74696e6120746f2057696e20576f726c642043757020323032363f",
          "blockHash": "0xbefa89a41575e575a7e513d243701fc0fce88c561292439f34e05579d8825944",
          "blockNumber": "0x1a847aa",
          "blockTimestamp": "0x6a29453e",
          "transactionHash": "0xd13fdf8b7c4e982e1eb54ec444cc208f37a4dce4b51b7e9088fc75b6a9886e17",
          "transactionIndex": "0x1",
          "logIndex": "0x0",
          "removed": false
        }
      ],
      "logsBloom": "0x00000000000000000000000000000000000000080000000000000000000000000000000000000000000000000000000020000020000000000000000000040000000000000000000000000000000000000000040000040000000000000000000000000000000000080000000000000000000000000000000000000000000000000000000000000000000000000000000000000000000000000000000000000000000000000000000000000000000000000000000000000000000000000080000000000000000000000000000000000000000000000000000000000000000040000000000000000000000000000000000000000000000000000000000000000000",
      "type": "0x2",
      "transactionHash": "0xd13fdf8b7c4e982e1eb54ec444cc208f37a4dce4b51b7e9088fc75b6a9886e17",
      "transactionIndex": "0x1",
      "blockHash": "0xbefa89a41575e575a7e513d243701fc0fce88c561292439f34e05579d8825944",
      "blockNumber": "0x1a847aa",
      "gasUsed": "0x1d12f",
      "effectiveGasPrice": "0xba43b7401",
      "blobGasUsed": "0x67",
      "from": "0xed1dc894220532920b7ca82d8c1758c3f86e2228",
      "to": "0xfc653ba52d3d4919fc7806a621ef60b55ebc2859",
      "contractAddress": null,
      "daFootprintGasScalar": "0x1",
      "l1BaseFeeScalar": "0x0",
      "l1BlobBaseFee": "0x2a192237",
      "l1BlobBaseFeeScalar": "0x0",
      "l1Fee": "0x0",
      "l1GasPrice": "0x2a9a1902d",
      "l1GasUsed": "0x67c"
    },
    {
      "status": "0x1",
      "cumulativeGasUsed": "0x3bcf5",
      "logs": [
        {
          "address": "0xfc653ba52d3d4919fc7806a621ef60b55ebc2859",
          "topics": [
            "0xcf1703a582c2d33aca5304d8715a8032f0db94e24a996a016453b343ea02d26b",
            "0x0000000000000000000000000000000000000000000000000000000000000002"
          ],
          "data": "0x0000000000000000000000000000000000000000000000000000000000000060000000000000000000000000000000000000000000000000000000006a2adb800000000000000000000000000000000000000000000000000000000000000000000000000000000000000000000000000000000000000000000000000000001d4672616e636520746f2057696e20576f726c642043757020323032363f000000",
          "blockHash": "0xbefa89a41575e575a7e513d243701fc0fce88c561292439f34e05579d8825944",
          "blockNumber": "0x1a847aa",
          "blockTimestamp": "0x6a29453e",
          "transactionHash": "0x60961fec4f6695f704e9af521b14bcf1402ce66110443179b8143c5020de6f8f",
          "transactionIndex": "0x2",
          "logIndex": "0x1",
          "removed": false
        }
      ],
      "logsBloom": "0x04000000000000000000000000000000000000080000000000000000000000000000000000000000000000000000000020000020000000000000000000000000000000000000000000000000000000000000040000000000000000000000000000000000000000080000000000000000000000000000000000000000000000000000000000000000000000000000000000000000000000000000000000000000000000000000000000000100000000000000000000000000000000000080000000000000000000000000000000000000000000000000000000000000000000000000000000000000000000000000000000000000008000000000000000000000",
      "type": "0x2",
      "transactionHash": "0x60961fec4f6695f704e9af521b14bcf1402ce66110443179b8143c5020de6f8f",
      "transactionIndex": "0x2",
      "blockHash": "0xbefa89a41575e575a7e513d243701fc0fce88c561292439f34e05579d8825944",
      "blockNumber": "0x1a847aa",
      "gasUsed": "0x13760",
      "effectiveGasPrice": "0xba43b7401",
      "blobGasUsed": "0x66",
      "from": "0xed1dc894220532920b7ca82d8c1758c3f86e2228",
      "to": "0xfc653ba52d3d4919fc7806a621ef60b55ebc2859",
      "contractAddress": null,
      "daFootprintGasScalar": "0x1",
      "l1BaseFeeScalar": "0x0",
      "l1BlobBaseFee": "0x2a192237",
      "l1BlobBaseFeeScalar": "0x0",
      "l1Fee": "0x0",
      "l1GasPrice": "0x2a9a1902d",
      "l1GasUsed": "0x66f"
    },
    {
      "status": "0x1",
      "cumulativeGasUsed": "0x4f461",
      "logs": [
        {
          "address": "0xfc653ba52d3d4919fc7806a621ef60b55ebc2859",
          "topics": [
            "0xcf1703a582c2d33aca5304d8715a8032f0db94e24a996a016453b343ea02d26b",
            "0x0000000000000000000000000000000000000000000000000000000000000003"
          ],
          "data": "0x0000000000000000000000000000000000000000000000000000000000000060000000000000000000000000000000000000000000000000000000006a2adb800000000000000000000000000000000000000000000000000000000000000000000000000000000000000000000000000000000000000000000000000000001e456e676c616e6420746f2057696e20576f726c642043757020323032363f0000",
          "blockHash": "0xbefa89a41575e575a7e513d243701fc0fce88c561292439f34e05579d8825944",
          "blockNumber": "0x1a847aa",
          "blockTimestamp": "0x6a29453e",
          "transactionHash": "0x65fd46e73e4a3a9fe42b3f88a74611254d8d6c639bd9ef1c2991ecbb108ea997",
          "transactionIndex": "0x3",
          "logIndex": "0x2",
          "removed": false
        }
      ],
      "logsBloom": "0x00000000000000000000000000000000000000080000000000000000000000000000000000000000000000000000000020000020020000000000000000000000000000000000000000000000000000000000040000000000000000000000000000000000000000080000000000000000000000000000000000000000000000000000000000000000000000000000000000000000000000000000000000000000000000000000000000000000000000000000000000800000000000000080400000000000000000000000000000000000000000000000000000000000000000000000000000000000000000000000000000000000000000000000000000000000",
      "type": "0x2",
      "transactionHash": "0x65fd46e73e4a3a9fe42b3f88a74611254d8d6c639bd9ef1c2991ecbb108ea997",
      "transactionIndex": "0x3",
      "blockHash": "0xbefa89a41575e575a7e513d243701fc0fce88c561292439f34e05579d8825944",
      "blockNumber": "0x1a847aa",
      "gasUsed": "0x1376c",
      "effectiveGasPrice": "0xba43b7401",
      "blobGasUsed": "0x67",
      "from": "0xed1dc894220532920b7ca82d8c1758c3f86e2228",
      "to": "0xfc653ba52d3d4919fc7806a621ef60b55ebc2859",
      "contractAddress": null,
      "daFootprintGasScalar": "0x1",
      "l1BaseFeeScalar": "0x0",
      "l1BlobBaseFee": "0x2a192237",
      "l1BlobBaseFeeScalar": "0x0",
      "l1Fee": "0x0",
      "l1GasPrice": "0x2a9a1902d",
      "l1GasUsed": "0x67c"
    },
    {
      "status": "0x1",
      "cumulativeGasUsed": "0x62bc1",
      "logs": [
        {
          "address": "0xfc653ba52d3d4919fc7806a621ef60b55ebc2859",
          "topics": [
            "0xcf1703a582c2d33aca5304d8715a8032f0db94e24a996a016453b343ea02d26b",
            "0x0000000000000000000000000000000000000000000000000000000000000004"
          ],
          "data": "0x0000000000000000000000000000000000000000000000000000000000000060000000000000000000000000000000000000000000000000000000006a2adb800000000000000000000000000000000000000000000000000000000000000000000000000000000000000000000000000000000000000000000000000000001d4272617a696c20746f2057696e20576f726c642043757020323032363f000000",
          "blockHash": "0xbefa89a41575e575a7e513d243701fc0fce88c561292439f34e05579d8825944",
          "blockNumber": "0x1a847aa",
          "blockTimestamp": "0x6a29453e",
          "transactionHash": "0x210909428d499ff6cc978f21ca3aabaf23ba9f4ef26e7edda87ecedfa8493d64",
          "transactionIndex": "0x4",
          "logIndex": "0x3",
          "removed": false
        }
      ],
      "logsBloom": "0x00000000000000000000000000000000000000080000000000000000000000000000000000000000000000000000000020000020000000000000000000000000000000000000000000000000000000000000040000000000000000000000000008000000000000080000000000000000000000000000000000000000000000000000000000000000000000000000000000000000000000000000000000000000000000000000000000000000000000000000000000000000002000000080000000000000000000000000000000000000000000008000000000000000000000000000000000000000000000000000000000000000000000000000000000000000",
      "type": "0x2",
      "transactionHash": "0x210909428d499ff6cc978f21ca3aabaf23ba9f4ef26e7edda87ecedfa8493d64",
      "transactionIndex": "0x4",
      "blockHash": "0xbefa89a41575e575a7e513d243701fc0fce88c561292439f34e05579d8825944",
      "blockNumber": "0x1a847aa",
      "gasUsed": "0x13760",
      "effectiveGasPrice": "0xba43b7401",
      "blobGasUsed": "0x66",
      "from": "0xed1dc894220532920b7ca82d8c1758c3f86e2228",
      "to": "0xfc653ba52d3d4919fc7806a621ef60b55ebc2859",
      "contractAddress": null,
      "daFootprintGasScalar": "0x1",
      "l1BaseFeeScalar": "0x0",
      "l1BlobBaseFee": "0x2a192237",
      "l1BlobBaseFeeScalar": "0x0",
      "l1Fee": "0x0",
      "l1GasPrice": "0x2a9a1902d",
      "l1GasUsed": "0x66f"
    },
    {
      "status": "0x1",
      "cumulativeGasUsed": "0x76315",
      "logs": [
        {
          "address": "0xfc653ba52d3d4919fc7806a621ef60b55ebc2859",
          "topics": [
            "0xcf1703a582c2d33aca5304d8715a8032f0db94e24a996a016453b343ea02d26b",
            "0x0000000000000000000000000000000000000000000000000000000000000005"
          ],
          "data": "0x0000000000000000000000000000000000000000000000000000000000000060000000000000000000000000000000000000000000000000000000006a2adb800000000000000000000000000000000000000000000000000000000000000000000000000000000000000000000000000000000000000000000000000000001c537061696e20746f2057696e20576f726c642043757020323032363f00000000",
          "blockHash": "0xbefa89a41575e575a7e513d243701fc0fce88c561292439f34e05579d8825944",
          "blockNumber": "0x1a847aa",
          "blockTimestamp": "0x6a29453e",
          "transactionHash": "0xa99ebaec1c9aed6b5ac4a5663ca7e48d26bed1a38d5419597dd26cdccee6a53d",
          "transactionIndex": "0x5",
          "logIndex": "0x4",
          "removed": false
        }
      ],
      "logsBloom": "0x00000000000000000000000000000000000000080000000000000000000000000000000000000000000000000000000020000020000000000000000000000000000010000000000000000000000000000000040000000000000000000000000000000000000000080000000000000000000000000000000000000000000000000000000000000000000000000000001000000800000000000000000000000000000000000000000000000000000000000000000000000000000000000080000000000000000000000000000000000000000000000000000000000000000000000000000000000000000000000000000000000000000000000000000000000000",
      "type": "0x2",
      "transactionHash": "0xa99ebaec1c9aed6b5ac4a5663ca7e48d26bed1a38d5419597dd26cdccee6a53d",
      "transactionIndex": "0x5",
      "blockHash": "0xbefa89a41575e575a7e513d243701fc0fce88c561292439f34e05579d8825944",
      "blockNumber": "0x1a847aa",
      "gasUsed": "0x13754",
      "effectiveGasPrice": "0xba43b7401",
      "blobGasUsed": "0x66",
      "from": "0xed1dc894220532920b7ca82d8c1758c3f86e2228",
      "to": "0xfc653ba52d3d4919fc7806a621ef60b55ebc2859",
      "contractAddress": null,
      "daFootprintGasScalar": "0x1",
      "l1BaseFeeScalar": "0x0",
      "l1BlobBaseFee": "0x2a192237",
      "l1BlobBaseFeeScalar": "0x0",
      "l1Fee": "0x0",
      "l1GasPrice": "0x2a9a1902d",
      "l1GasUsed": "0x662"
    },
    {
      "status": "0x1",
      "cumulativeGasUsed": "0x89a45",
      "logs": [
        {
          "address": "0xfc653ba52d3d4919fc7806a621ef60b55ebc2859",
          "topics": [
            "0xcf1703a582c2d33aca5304d8715a8032f0db94e24a996a016453b343ea02d26b",
            "0x0000000000000000000000000000000000000000000000000000000000000006"
          ],
          "data": "0x0000000000000000000000000000000000000000000000000000000000000060000000000000000000000000000000000000000000000000000000006a2adb800000000000000000000000000000000000000000000000000000000000000000000000000000000000000000000000000000000000000000000000000000001955534120746f2052656163682053656d692d46696e616c733f00000000000000",
          "blockHash": "0xbefa89a41575e575a7e513d243701fc0fce88c561292439f34e05579d8825944",
          "blockNumber": "0x1a847aa",
          "blockTimestamp": "0x6a29453e",
          "transactionHash": "0x21f43e5ded034a417bbff40f1d80179417e3418f880bf93b7e23d3313a0424a3",
          "transactionIndex": "0x6",
          "logIndex": "0x5",
          "removed": false
        }
      ],
      "logsBloom": "0x00000000000000000000000000000000000000080000000000000000000000000000000000000000000000000000000020000020000400000000000000000000000000000000000000000000000000000000040000000000000000000000000000000000000000080000000000000000000000000000000000000000000000000000000400000000000000000000000000000000000000000000000000000000000000000000000000000000000000000000000000000000000000080080000000000000000000000000000000000000000000000000000000000000000000000000000000000000000000000000000000000000000000000000000000000000",
      "type": "0x2",
      "transactionHash": "0x21f43e5ded034a417bbff40f1d80179417e3418f880bf93b7e23d3313a0424a3",
      "transactionIndex": "0x6",
      "blockHash": "0xbefa89a41575e575a7e513d243701fc0fce88c561292439f34e05579d8825944",
      "blockNumber": "0x1a847aa",
      "gasUsed": "0x13730",
      "effectiveGasPrice": "0xba43b7401",
      "blobGasUsed": "0x64",
      "from": "0xed1dc894220532920b7ca82d8c1758c3f86e2228",
      "to": "0xfc653ba52d3d4919fc7806a621ef60b55ebc2859",
      "contractAddress": null,
      "daFootprintGasScalar": "0x1",
      "l1BaseFeeScalar": "0x0",
      "l1BlobBaseFee": "0x2a192237",
      "l1BlobBaseFeeScalar": "0x0",
      "l1Fee": "0x0",
      "l1GasPrice": "0x2a9a1902d",
      "l1GasUsed": "0x640"
    },
    {
      "status": "0x1",
      "cumulativeGasUsed": "0xa28a8",
      "logs": [
        {
          "address": "0xfc653ba52d3d4919fc7806a621ef60b55ebc2859",
          "topics": [
            "0xcf1703a582c2d33aca5304d8715a8032f0db94e24a996a016453b343ea02d26b",
            "0x0000000000000000000000000000000000000000000000000000000000000007"
          ],
          "data": "0x0000000000000000000000000000000000000000000000000000000000000060000000000000000000000000000000000000000000000000000000006a2adb80000000000000000000000000000000000000000000000000000000000000000000000000000000000000000000000000000000000000000000000000000000204d6f726f63636f20746f20526561636820517561727465722d46696e616c733f",
          "blockHash": "0xbefa89a41575e575a7e513d243701fc0fce88c561292439f34e05579d8825944",
          "blockNumber": "0x1a847aa",
          "blockTimestamp": "0x6a29453e",
          "transactionHash": "0x37ecad5530ac968e7ce0728589b6a962f3a4c8bf3e9ae48eed36c2edbbf6a4d9",
          "transactionIndex": "0x7",
          "logIndex": "0x6",
          "removed": false
        }
      ],
      "logsBloom": "0x00000000000000000000000000000000000000080000000000000000000000000000000000000000000000000000000020001020000000000000000000000000000020000000000000000000000000000000040000000000000000000000000000000000000000080000000000000000000000000000000000000000000000000000000000000000000000000000000000000000000000000000000000000000000000000000000000000000000000000000000000000000000000000080000000000000000000000000000000000000000000000000000000000100000000000000000000000000000000000000000000000000000000000000000000000000",
      "type": "0x2",
      "transactionHash": "0x37ecad5530ac968e7ce0728589b6a962f3a4c8bf3e9ae48eed36c2edbbf6a4d9",
      "transactionIndex": "0x7",
      "blockHash": "0xbefa89a41575e575a7e513d243701fc0fce88c561292439f34e05579d8825944",
      "blockNumber": "0x1a847aa",
      "gasUsed": "0x18e63",
      "effectiveGasPrice": "0xba43b7401",
      "blobGasUsed": "0x67",
      "from": "0xed1dc894220532920b7ca82d8c1758c3f86e2228",
      "to": "0xfc653ba52d3d4919fc7806a621ef60b55ebc2859",
      "contractAddress": null,
      "daFootprintGasScalar": "0x1",
      "l1BaseFeeScalar": "0x0",
      "l1BlobBaseFee": "0x2a192237",
      "l1BlobBaseFeeScalar": "0x0",
      "l1Fee": "0x0",
      "l1GasPrice": "0x2a9a1902d",
      "l1GasUsed": "0x67c"
    },
    {
      "status": "0x1",
      "cumulativeGasUsed": "0xb5ff0",
      "logs": [
        {
          "address": "0xfc653ba52d3d4919fc7806a621ef60b55ebc2859",
          "topics": [
            "0xcf1703a582c2d33aca5304d8715a8032f0db94e24a996a016453b343ea02d26b",
            "0x0000000000000000000000000000000000000000000000000000000000000008"
          ],
          "data": "0x0000000000000000000000000000000000000000000000000000000000000060000000000000000000000000000000000000000000000000000000006a669f800000000000000000000000000000000000000000000000000000000000000000000000000000000000000000000000000000000000000000000000000000001b46696e616c204d61746368204f76657220322e3520476f616c733f0000000000",
          "blockHash": "0xbefa89a41575e575a7e513d243701fc0fce88c561292439f34e05579d8825944",
          "blockNumber": "0x1a847aa",
          "blockTimestamp": "0x6a29453e",
          "transactionHash": "0x81d1456877cdb280d52913b3a9d253337b7d1f827832d397ef40ac95ec7918d2",
          "transactionIndex": "0x8",
          "logIndex": "0x7",
          "removed": false
        }
      ],
      "logsBloom": "0x00000000000000000000000000000000000000080000000000000000000000000000000000000000000000000000000020000020000080000000000000000000000000000000000000000000000000000000040000000000000000000000000000000000000000080000000000000000000000000000000000000000000000000080000000000000000000000000000000000000000000000000000000000000000000000000000000000000000000000000000000000000000000000080000040000000000000000000000000000000000000000000000000000000000000000000000000000000000000000000000000000000000000000000000000000000",
      "type": "0x2",
      "transactionHash": "0x81d1456877cdb280d52913b3a9d253337b7d1f827832d397ef40ac95ec7918d2",
      "transactionIndex": "0x8",
      "blockHash": "0xbefa89a41575e575a7e513d243701fc0fce88c561292439f34e05579d8825944",
      "blockNumber": "0x1a847aa",
      "gasUsed": "0x13748",
      "effectiveGasPrice": "0xba43b7401",
      "blobGasUsed": "0x65",
      "from": "0xed1dc894220532920b7ca82d8c1758c3f86e2228",
      "to": "0xfc653ba52d3d4919fc7806a621ef60b55ebc2859",
      "contractAddress": null,
      "daFootprintGasScalar": "0x1",
      "l1BaseFeeScalar": "0x0",
      "l1BlobBaseFee": "0x2a192237",
      "l1BlobBaseFeeScalar": "0x0",
      "l1Fee": "0x0",
      "l1GasPrice": "0x2a9a1902d",
      "l1GasUsed": "0x654"
    },
    {
      "status": "0x1",
      "cumulativeGasUsed": "0xd9439",
      "logs": [
        {
          "address": "0xfc653ba52d3d4919fc7806a621ef60b55ebc2859",
          "topics": [
            "0xcf1703a582c2d33aca5304d8715a8032f0db94e24a996a016453b343ea02d26b",
            "0x0000000000000000000000000000000000000000000000000000000000000009"
          ],
          "data": "0x0000000000000000000000000000000000000000000000000000000000000060000000000000000000000000000000000000000000000000000000006a2b13c000000000000000000000000000000000000000000000000000000000000000010000000000000000000000000000000000000000000000000000000000000022417267656e74696e6120746f20626561742043616e616461202847726f7570204129000000000000000000000000000000000000000000000000000000000000",
          "blockHash": "0xbefa89a41575e575a7e513d243701fc0fce88c561292439f34e05579d8825944",
          "blockNumber": "0x1a847aa",
          "blockTimestamp": "0x6a29453e",
          "transactionHash": "0x89f4c1c6086e9b629f66d708977273039e7468d3c1f48d4ef403a1128c30c194",
          "transactionIndex": "0x9",
          "logIndex": "0x8",
          "removed": false
        }
      ],
      "logsBloom": "0x00000000000000000000000000000000000000080000000000000000000000000000000000000000000000000000000020000020000000000000000000200000000000000000000000000000000000000000040000000000000000000000000000000000000000080000000000000000000000000000000000000000000000000000000000000000000000000000000000001000000000000000000000000000000000000000000000000000000000000000000000000000000000000080000000000000000000000000000000000000000000000000000000000000000000000000000000000000000000000000000000000000000000000000000000800000",
      "type": "0x2",
      "transactionHash": "0x89f4c1c6086e9b629f66d708977273039e7468d3c1f48d4ef403a1128c30c194",
      "transactionIndex": "0x9",
      "blockHash": "0xbefa89a41575e575a7e513d243701fc0fce88c561292439f34e05579d8825944",
      "blockNumber": "0x1a847aa",
      "gasUsed": "0x23449",
      "effectiveGasPrice": "0xba43b7401",
      "blobGasUsed": "0x73",
      "from": "0xed1dc894220532920b7ca82d8c1758c3f86e2228",
      "to": "0xfc653ba52d3d4919fc7806a621ef60b55ebc2859",
      "contractAddress": null,
      "daFootprintGasScalar": "0x1",
      "l1BaseFeeScalar": "0x0",
      "l1BlobBaseFee": "0x2a192237",
      "l1BlobBaseFeeScalar": "0x0",
      "l1Fee": "0x0",
      "l1GasPrice": "0x2a9a1902d",
      "l1GasUsed": "0x738"
    },
    {
      "status": "0x1",
      "cumulativeGasUsed": "0xfc89a",
      "logs": [
        {
          "address": "0xfc653ba52d3d4919fc7806a621ef60b55ebc2859",
          "topics": [
            "0xcf1703a582c2d33aca5304d8715a8032f0db94e24a996a016453b343ea02d26b",
            "0x000000000000000000000000000000000000000000000000000000000000000a"
          ],
          "data": "0x0000000000000000000000000000000000000000000000000000000000000060000000000000000000000000000000000000000000000000000000006a2db6c000000000000000000000000000000000000000000000000000000000000000010000000000000000000000000000000000000000000000000000000000000024506f72747567616c20746f206265617420417267656e74696e61202847726f757020412900000000000000000000000000000000000000000000000000000000",
          "blockHash": "0xbefa89a41575e575a7e513d243701fc0fce88c561292439f34e05579d8825944",
          "blockNumber": "0x1a847aa",
          "blockTimestamp": "0x6a29453e",
          "transactionHash": "0xe3f79e398d0c1f403d17510fab09951dd792151f31e7740a7c655e0d9b70f9d6",
          "transactionIndex": "0xa",
          "logIndex": "0x9",
          "removed": false
        }
      ],
      "logsBloom": "0x00000000000000000000000000000000000000080000000000000000000000000000000000000000000000000000000020000020040000000020000000000000000000000000000000000000000000000000040000000000000000000000000000000000000000080000000000000000000000000000000000000000000000000000000000000000010000000000000000000000000000000000000000000000000000000000000000000000000000000000000000000000000000000080000000000000000000000000000000000000000000000000000000000000000000000000000000000000000000000000000000000000000000000000000000000000",
      "type": "0x2",
      "transactionHash": "0xe3f79e398d0c1f403d17510fab09951dd792151f31e7740a7c655e0d9b70f9d6",
      "transactionIndex": "0xa",
      "blockHash": "0xbefa89a41575e575a7e513d243701fc0fce88c561292439f34e05579d8825944",
      "blockNumber": "0x1a847aa",
      "gasUsed": "0x23461",
      "effectiveGasPrice": "0xba43b7401",
      "blobGasUsed": "0x73",
      "from": "0xed1dc894220532920b7ca82d8c1758c3f86e2228",
      "to": "0xfc653ba52d3d4919fc7806a621ef60b55ebc2859",
      "contractAddress": null,
      "daFootprintGasScalar": "0x1",
      "l1BaseFeeScalar": "0x0",
      "l1BlobBaseFee": "0x2a192237",
      "l1BlobBaseFeeScalar": "0x0",
      "l1Fee": "0x0",
      "l1GasPrice": "0x2a9a1902d",
      "l1GasUsed": "0x738"
    },
    {
      "status": "0x1",
      "cumulativeGasUsed": "0x11fcd7",
      "logs": [
        {
          "address": "0xfc653ba52d3d4919fc7806a621ef60b55ebc2859",
          "topics": [
            "0xcf1703a582c2d33aca5304d8715a8032f0db94e24a996a016453b343ea02d26b",
            "0x000000000000000000000000000000000000000000000000000000000000000b"
          ],
          "data": "0x0000000000000000000000000000000000000000000000000000000000000060000000000000000000000000000000000000000000000000000000006a3059c00000000000000000000000000000000000000000000000000000000000000001000000000000000000000000000000000000000000000000000000000000002143616e61646120746f206265617420506f72747567616c202847726f757020412900000000000000000000000000000000000000000000000000000000000000",
          "blockHash": "0xbefa89a41575e575a7e513d243701fc0fce88c561292439f34e05579d8825944",
          "blockNumber": "0x1a847aa",
          "blockTimestamp": "0x6a29453e",
          "transactionHash": "0x6007dd8bd6841787c87279c30e8d03a2f7d2d1745e52cc0c5e44b4eaa1789fc1",
          "transactionIndex": "0xb",
          "logIndex": "0xa",
          "removed": false
        }
      ],
      "logsBloom": "0x00000000000000000000004000000000000000080000000000000000000000000000000000000000000000000000000020000020000000000000000000000000000000000000000000000000000000000000040000000000000000000000000000000000000000080000000000000000000000000000000000000000000000000000000000000000000000000000000000000000000000000000000000000000000000000000000000000000000000000000000000000000000000000080000000000000000000000000000000000000002000000000000000000000000000000000000000000000000000000000000000000000000000040000000000000000",
      "type": "0x2",
      "transactionHash": "0x6007dd8bd6841787c87279c30e8d03a2f7d2d1745e52cc0c5e44b4eaa1789fc1",
      "transactionIndex": "0xb",
      "blockHash": "0xbefa89a41575e575a7e513d243701fc0fce88c561292439f34e05579d8825944",
      "blockNumber": "0x1a847aa",
      "gasUsed": "0x2343d",
      "effectiveGasPrice": "0xba43b7401",
      "blobGasUsed": "0x72",
      "from": "0xed1dc894220532920b7ca82d8c1758c3f86e2228",
      "to": "0xfc653ba52d3d4919fc7806a621ef60b55ebc2859",
      "contractAddress": null,
      "daFootprintGasScalar": "0x1",
      "l1BaseFeeScalar": "0x0",
      "l1BlobBaseFee": "0x2a192237",
      "l1BlobBaseFeeScalar": "0x0",
      "l1Fee": "0x0",
      "l1GasPrice": "0x2a9a1902d",
      "l1GasUsed": "0x72a"
    },
    {
      "status": "0x1",
      "cumulativeGasUsed": "0x138217",
      "logs": [
        {
          "address": "0xfc653ba52d3d4919fc7806a621ef60b55ebc2859",
          "topics": [
            "0xcf1703a582c2d33aca5304d8715a8032f0db94e24a996a016453b343ea02d26b",
            "0x000000000000000000000000000000000000000000000000000000000000000c"
          ],
          "data": "0x0000000000000000000000000000000000000000000000000000000000000060000000000000000000000000000000000000000000000000000000006a2c65400000000000000000000000000000000000000000000000000000000000000001000000000000000000000000000000000000000000000000000000000000001f4672616e636520746f2062656174204d657869636f202847726f757020422900",
          "blockHash": "0xbefa89a41575e575a7e513d243701fc0fce88c561292439f34e05579d8825944",
          "blockNumber": "0x1a847aa",
          "blockTimestamp": "0x6a29453e",
          "transactionHash": "0xf0441d89423ac8aba638ba4a381132359aaad5765280d522e62c9511181f6630",
          "transactionIndex": "0xc",
          "logIndex": "0xb",
          "removed": false
        }
      ],
      "logsBloom": "0x00000000000000000000000000000000000002080000000000000000000000000000000000000200000000000000000020000020000000000000000000000000000000000000000000000000000000000000040000000000000000000000000000000000000000080000000000000000000000000000000000000000000000000000000000000000000000000000000000000000000000000000000000000000000000000000000000000000000000000000000000000000000000000080000000000000000000000000000000000000000000000000000000000000000000200000000000000000000000000000000000000000000000000000000000000000",
      "type": "0x2",
      "transactionHash": "0xf0441d89423ac8aba638ba4a381132359aaad5765280d522e62c9511181f6630",
      "transactionIndex": "0xc",
      "blockHash": "0xbefa89a41575e575a7e513d243701fc0fce88c561292439f34e05579d8825944",
      "blockNumber": "0x1a847aa",
      "gasUsed": "0x18540",
      "effectiveGasPrice": "0xba43b7401",
      "blobGasUsed": "0x6c",
      "from": "0xed1dc894220532920b7ca82d8c1758c3f86e2228",
      "to": "0xfc653ba52d3d4919fc7806a621ef60b55ebc2859",
      "contractAddress": null,
      "daFootprintGasScalar": "0x1",
      "l1BaseFeeScalar": "0x0",
      "l1BlobBaseFee": "0x2a192237",
      "l1BlobBaseFeeScalar": "0x0",
      "l1Fee": "0x0",
      "l1GasPrice": "0x2a9a1902d",
      "l1GasUsed": "0x6cd"
    },
    {
      "status": "0x1",
      "cumulativeGasUsed": "0x155e42",
      "logs": [
        {
          "address": "0xfc653ba52d3d4919fc7806a621ef60b55ebc2859",
          "topics": [
            "0xcf1703a582c2d33aca5304d8715a8032f0db94e24a996a016453b343ea02d26b",
            "0x000000000000000000000000000000000000000000000000000000000000000d"
          ],
          "data": "0x0000000000000000000000000000000000000000000000000000000000000060000000000000000000000000000000000000000000000000000000006a2f0840000000000000000000000000000000000000000000000000000000000000000100000000000000000000000000000000000000000000000000000000000000204d657869636f20746f2062656174204765726d616e79202847726f7570204229",
          "blockHash": "0xbefa89a41575e575a7e513d243701fc0fce88c561292439f34e05579d8825944",
          "blockNumber": "0x1a847aa",
          "blockTimestamp": "0x6a29453e",
          "transactionHash": "0xf0bebdace05c18edd644fe8ce58bd938dc0e688fb656ec5309fdeb87d935606b",
          "transactionIndex": "0xd",
          "logIndex": "0xc",
          "removed": false
        }
      ],
      "logsBloom": "0x00000000000000000040000000000000000000080000000000000000000000000000000000000000000000000000000020000020000000000000000000000000000000000000000000000000000000000002040000000000000000000000000000000000000000080000000000000000000000000000000000000000000000000000000000000000000000000000000000000000000000000000000000000000000000000000000000000000000000000000000000000000000000000080000000000000000000000000000000000000000000000000000000000000000000020000000000000000000000000000000000000000000000000000000000000000",
      "type": "0x2",
      "transactionHash": "0xf0bebdace05c18edd644fe8ce58bd938dc0e688fb656ec5309fdeb87d935606b",
      "transactionIndex": "0xd",
      "blockHash": "0xbefa89a41575e575a7e513d243701fc0fce88c561292439f34e05579d8825944",
      "blockNumber": "0x1a847aa",
      "gasUsed": "0x1dc2b",
      "effectiveGasPrice": "0xba43b7401",
      "blobGasUsed": "0x6c",
      "from": "0xed1dc894220532920b7ca82d8c1758c3f86e2228",
      "to": "0xfc653ba52d3d4919fc7806a621ef60b55ebc2859",
      "contractAddress": null,
      "daFootprintGasScalar": "0x1",
      "l1BaseFeeScalar": "0x0",
      "l1BlobBaseFee": "0x2a192237",
      "l1BlobBaseFeeScalar": "0x0",
      "l1Fee": "0x0",
      "l1GasPrice": "0x2a9a1902d",
      "l1GasUsed": "0x6cd"
    },
    {
      "status": "0x1",
      "cumulativeGasUsed": "0x173a6d",
      "logs": [
        {
          "address": "0xfc653ba52d3d4919fc7806a621ef60b55ebc2859",
          "topics": [
            "0xcf1703a582c2d33aca5304d8715a8032f0db94e24a996a016453b343ea02d26b",
            "0x000000000000000000000000000000000000000000000000000000000000000e"
          ],
          "data": "0x0000000000000000000000000000000000000000000000000000000000000060000000000000000000000000000000000000000000000000000000006a31ab40000000000000000000000000000000000000000000000000000000000000000100000000000000000000000000000000000000000000000000000000000000204765726d616e7920746f2062656174204672616e6365202847726f7570204229",
          "blockHash": "0xbefa89a41575e575a7e513d243701fc0fce88c561292439f34e05579d8825944",
          "blockNumber": "0x1a847aa",
          "blockTimestamp": "0x6a29453e",
          "transactionHash": "0xeb45a3b2f5a5e7bf5fd448108111eba9c785d8ec8d9e08ca5cd68225f24de971",
          "transactionIndex": "0xe",
          "logIndex": "0xd",
          "removed": false
        }
      ],
      "logsBloom": "0x00000000000000000000000000000000000000080000000000000000000000000000000000000000000000000000000020000020000000000000000000000000000000000000000800000000000000000000040000000000000000000000000000000000000000080000000000000000000000000000000000000000000000000000000000000000000000000000000008000000000000000000000000000000000000000000000000000000000000000000000000000020000000000080000000000000000000000000000000000000000000000000000000000000000000000000000000000000000000000000000000000000000000000000000000000000",
      "type": "0x2",
      "transactionHash": "0xeb45a3b2f5a5e7bf5fd448108111eba9c785d8ec8d9e08ca5cd68225f24de971",
      "transactionIndex": "0xe",
      "blockHash": "0xbefa89a41575e575a7e513d243701fc0fce88c561292439f34e05579d8825944",
      "blockNumber": "0x1a847aa",
      "gasUsed": "0x1dc2b",
      "effectiveGasPrice": "0xba43b7401",
      "blobGasUsed": "0x6c",
      "from": "0xed1dc894220532920b7ca82d8c1758c3f86e2228",
      "to": "0xfc653ba52d3d4919fc7806a621ef60b55ebc2859",
      "contractAddress": null,
      "daFootprintGasScalar": "0x1",
      "l1BaseFeeScalar": "0x0",
      "l1BlobBaseFee": "0x2a192237",
      "l1BlobBaseFeeScalar": "0x0",
      "l1Fee": "0x0",
      "l1GasPrice": "0x2a9a1902d",
      "l1GasUsed": "0x6cd"
    },
    {
      "status": "0x1",
      "cumulativeGasUsed": "0x191698",
      "logs": [
        {
          "address": "0xfc653ba52d3d4919fc7806a621ef60b55ebc2859",
          "topics": [
            "0xcf1703a582c2d33aca5304d8715a8032f0db94e24a996a016453b343ea02d26b",
            "0x000000000000000000000000000000000000000000000000000000000000000f"
          ],
          "data": "0x0000000000000000000000000000000000000000000000000000000000000060000000000000000000000000000000000000000000000000000000006a2c6540000000000000000000000000000000000000000000000000000000000000000100000000000000000000000000000000000000000000000000000000000000204272617a696c20746f2062656174204d6f726f63636f202847726f7570204329",
          "blockHash": "0xbefa89a41575e575a7e513d243701fc0fce88c561292439f34e05579d8825944",
          "blockNumber": "0x1a847aa",
          "blockTimestamp": "0x6a29453e",
          "transactionHash": "0xd6608ba90c59b69c034ff208266defc9bc9b69cbf69307ad7cd73e3a84554dea",
          "transactionIndex": "0xf",
          "logIndex": "0xe",
          "removed": false
        }
      ],
      "logsBloom": "0x00000000000000000000000000000000000000080000000000000000000000000000000000000000000000000000000020000020000000000000000000000000000000000000000000000000000000000000040000000000000000000002000000000000000000080000000000000000000000000000000000000000000000000000000000000800000000000000000000000000000000000000000000000000000000000000000000000000000000000000000000000000000000000080000000000000000000000000000000000000000000000000000000000000000000000000000200000000000000000000000000000000000000000000000000000000",
      "type": "0x2",
      "transactionHash": "0xd6608ba90c59b69c034ff208266defc9bc9b69cbf69307ad7cd73e3a84554dea",
      "transactionIndex": "0xf",
      "blockHash": "0xbefa89a41575e575a7e513d243701fc0fce88c561292439f34e05579d8825944",
      "blockNumber": "0x1a847aa",
      "gasUsed": "0x1dc2b",
      "effectiveGasPrice": "0xba43b7401",
      "blobGasUsed": "0x6c",
      "from": "0xed1dc894220532920b7ca82d8c1758c3f86e2228",
      "to": "0xfc653ba52d3d4919fc7806a621ef60b55ebc2859",
      "contractAddress": null,
      "daFootprintGasScalar": "0x1",
      "l1BaseFeeScalar": "0x0",
      "l1BlobBaseFee": "0x2a192237",
      "l1BlobBaseFeeScalar": "0x0",
      "l1Fee": "0x0",
      "l1GasPrice": "0x2a9a1902d",
      "l1GasUsed": "0x6cd"
    },
    {
      "status": "0x1",
      "cumulativeGasUsed": "0x1b4ae1",
      "logs": [
        {
          "address": "0xfc653ba52d3d4919fc7806a621ef60b55ebc2859",
          "topics": [
            "0xcf1703a582c2d33aca5304d8715a8032f0db94e24a996a016453b343ea02d26b",
            "0x0000000000000000000000000000000000000000000000000000000000000010"
          ],
          "data": "0x0000000000000000000000000000000000000000000000000000000000000060000000000000000000000000000000000000000000000000000000006a2f0840000000000000000000000000000000000000000000000000000000000000000100000000000000000000000000000000000000000000000000000000000000224d6f726f63636f20746f206265617420436f6c6f6d626961202847726f7570204329000000000000000000000000000000000000000000000000000000000000",
          "blockHash": "0xbefa89a41575e575a7e513d243701fc0fce88c561292439f34e05579d8825944",
          "blockNumber": "0x1a847aa",
          "blockTimestamp": "0x6a29453e",
          "transactionHash": "0x9566af4d41f5c075e9ec24dae1139a0f344510dee020fac4e737f0fbff2b6a09",
          "transactionIndex": "0x10",
          "logIndex": "0xf",
          "removed": false
        }
      ],
      "logsBloom": "0x00000000100000000000000000000000000000080000000000000000000000000000000000000000000000000000000020000020000000000000000000000000000000000000000000000000000000000000040000000000000000000000000000000000000000080000000000000000000000000000000000000000040000000000000000000000000000000000000000000100000000000000000000000000000000000000000000000000000000000000000000000000000000000080000000000000000000000000000000000000000000000000000000000000000000000000000000000000000000000000000000000000000000000000000000000000",
      "type": "0x2",
      "transactionHash": "0x9566af4d41f5c075e9ec24dae1139a0f344510dee020fac4e737f0fbff2b6a09",
      "transactionIndex": "0x10",
      "blockHash": "0xbefa89a41575e575a7e513d243701fc0fce88c561292439f34e05579d8825944",
      "blockNumber": "0x1a847aa",
      "gasUsed": "0x23449",
      "effectiveGasPrice": "0xba43b7401",
      "blobGasUsed": "0x73",
      "from": "0xed1dc894220532920b7ca82d8c1758c3f86e2228",
      "to": "0xfc653ba52d3d4919fc7806a621ef60b55ebc2859",
      "contractAddress": null,
      "daFootprintGasScalar": "0x1",
      "l1BaseFeeScalar": "0x0",
      "l1BlobBaseFee": "0x2a192237",
      "l1BlobBaseFeeScalar": "0x0",
      "l1Fee": "0x0",
      "l1GasPrice": "0x2a9a1902d",
      "l1GasUsed": "0x738"
    },
    {
      "status": "0x1",
      "cumulativeGasUsed": "0x1d7f1e",
      "logs": [
        {
          "address": "0xfc653ba52d3d4919fc7806a621ef60b55ebc2859",
          "topics": [
            "0xcf1703a582c2d33aca5304d8715a8032f0db94e24a996a016453b343ea02d26b",
            "0x0000000000000000000000000000000000000000000000000000000000000011"
          ],
          "data": "0x0000000000000000000000000000000000000000000000000000000000000060000000000000000000000000000000000000000000000000000000006a31ab4000000000000000000000000000000000000000000000000000000000000000010000000000000000000000000000000000000000000000000000000000000021436f6c6f6d62696120746f2062656174204272617a696c202847726f757020432900000000000000000000000000000000000000000000000000000000000000",
          "blockHash": "0xbefa89a41575e575a7e513d243701fc0fce88c561292439f34e05579d8825944",
          "blockNumber": "0x1a847aa",
          "blockTimestamp": "0x6a29453e",
          "transactionHash": "0x65a9e915bec8221ac41111e2c54ab1c84aff5291d27dfffea2ef2f84cb2d5618",
          "transactionIndex": "0x11",
          "logIndex": "0x10",
          "removed": false
        }
      ],
      "logsBloom": "0x00000000000000000000000000000000000000080000000000000000000000000000000000000000000000000000000020000020000000000000000000000000000000000000000000000000000000000000040000000000000000000000000000000000000000080000000000000000000000004000000000000000000000000000000000000000000000000000000000000000000000000000000000000000000000000000000000000000000000000000000000000000000000000480000000001000000000000000000000000000000000000000000000000000000000000000000000000000000000000000000000000000000000000000000000000000",
      "type": "0x2",
      "transactionHash": "0x65a9e915bec8221ac41111e2c54ab1c84aff5291d27dfffea2ef2f84cb2d5618",
      "transactionIndex": "0x11",
      "blockHash": "0xbefa89a41575e575a7e513d243701fc0fce88c561292439f34e05579d8825944",
      "blockNumber": "0x1a847aa",
      "gasUsed": "0x2343d",
      "effectiveGasPrice": "0xba43b7401",
      "blobGasUsed": "0x72",
      "from": "0xed1dc894220532920b7ca82d8c1758c3f86e2228",
      "to": "0xfc653ba52d3d4919fc7806a621ef60b55ebc2859",
      "contractAddress": null,
      "daFootprintGasScalar": "0x1",
      "l1BaseFeeScalar": "0x0",
      "l1BlobBaseFee": "0x2a192237",
      "l1BlobBaseFeeScalar": "0x0",
      "l1Fee": "0x0",
      "l1GasPrice": "0x2a9a1902d",
      "l1GasUsed": "0x72a"
    },
    {
      "status": "0x1",
      "cumulativeGasUsed": "0x1f0446",
      "logs": [
        {
          "address": "0xfc653ba52d3d4919fc7806a621ef60b55ebc2859",
          "topics": [
            "0xcf1703a582c2d33aca5304d8715a8032f0db94e24a996a016453b343ea02d26b",
            "0x0000000000000000000000000000000000000000000000000000000000000012"
          ],
          "data": "0x0000000000000000000000000000000000000000000000000000000000000060000000000000000000000000000000000000000000000000000000006a2db6c00000000000000000000000000000000000000000000000000000000000000001000000000000000000000000000000000000000000000000000000000000001d456e676c616e6420746f206265617420555341202847726f7570204429000000",
          "blockHash": "0xbefa89a41575e575a7e513d243701fc0fce88c561292439f34e05579d8825944",
          "blockNumber": "0x1a847aa",
          "blockTimestamp": "0x6a29453e",
          "transactionHash": "0x687bb97b7153dac9cf42767853969d6080f4f9bea8da7b9b3317de38b4f34b06",
          "transactionIndex": "0x12",
          "logIndex": "0x11",
          "removed": false
        }
      ],
      "logsBloom": "0x00000000000000000000000000000000000000080000000000000000000000000000000000000000000000000000000020000020000000000000000000000000000000000000000000000000000000000000040000000000000000000000000000000000000000080000000000000000000000000000000000000000000000000000000000000000000000000000040000000000000000000000000000000000000000000000000000000000000000000000000000000040000000000080000000000000000000000400000000000000000000000000000000000000000000000000000000000000000000000000000000000000000000000000000000000000",
      "type": "0x2",
      "transactionHash": "0x687bb97b7153dac9cf42767853969d6080f4f9bea8da7b9b3317de38b4f34b06",
      "transactionIndex": "0x12",
      "blockHash": "0xbefa89a41575e575a7e513d243701fc0fce88c561292439f34e05579d8825944",
      "blockNumber": "0x1a847aa",
      "gasUsed": "0x18528",
      "effectiveGasPrice": "0xba43b7401",
      "blobGasUsed": "0x6b",
      "from": "0xed1dc894220532920b7ca82d8c1758c3f86e2228",
      "to": "0xfc653ba52d3d4919fc7806a621ef60b55ebc2859",
      "contractAddress": null,
      "daFootprintGasScalar": "0x1",
      "l1BaseFeeScalar": "0x0",
      "l1BlobBaseFee": "0x2a192237",
      "l1BlobBaseFeeScalar": "0x0",
      "l1Fee": "0x0",
      "l1GasPrice": "0x2a9a1902d",
      "l1GasUsed": "0x6bf"
    },
    {
      "status": "0x1",
      "cumulativeGasUsed": "0x213883",
      "logs": [
        {
          "address": "0xfc653ba52d3d4919fc7806a621ef60b55ebc2859",
          "topics": [
            "0xcf1703a582c2d33aca5304d8715a8032f0db94e24a996a016453b343ea02d26b",
            "0x0000000000000000000000000000000000000000000000000000000000000013"
          ],
          "data": "0x0000000000000000000000000000000000000000000000000000000000000060000000000000000000000000000000000000000000000000000000006a3059c00000000000000000000000000000000000000000000000000000000000000001000000000000000000000000000000000000000000000000000000000000002155534120746f2062656174204e65746865726c616e6473202847726f757020442900000000000000000000000000000000000000000000000000000000000000",
          "blockHash": "0xbefa89a41575e575a7e513d243701fc0fce88c561292439f34e05579d8825944",
          "blockNumber": "0x1a847aa",
          "blockTimestamp": "0x6a29453e",
          "transactionHash": "0xbaadcfc6e3cae303bb40e6a51c888161d069fa960f4003ab8e2bcf081513834a",
          "transactionIndex": "0x13",
          "logIndex": "0x12",
          "removed": false
        }
      ],
      "logsBloom": "0x20000000000000000000000000800000000000080000000000000000000000000000000040000000000000000000000020000020000000000000000000000000000000000000000000000000000000000000040000000000000000000000000000000000000000080000000000000000000000000000000000000000000000000000000000000000000000000000000000000000000000000000000000000000000000000000000000000000000000000000000000000000000000000080000000000000000000000000000000000000000000000000000000000000000000000000000000000000000000000000000000000000000000000000000000000000",
      "type": "0x2",
      "transactionHash": "0xbaadcfc6e3cae303bb40e6a51c888161d069fa960f4003ab8e2bcf081513834a",
      "transactionIndex": "0x13",
      "blockHash": "0xbefa89a41575e575a7e513d243701fc0fce88c561292439f34e05579d8825944",
      "blockNumber": "0x1a847aa",
      "gasUsed": "0x2343d",
      "effectiveGasPrice": "0xba43b7401",
      "blobGasUsed": "0x72",
      "from": "0xed1dc894220532920b7ca82d8c1758c3f86e2228",
      "to": "0xfc653ba52d3d4919fc7806a621ef60b55ebc2859",
      "contractAddress": null,
      "daFootprintGasScalar": "0x1",
      "l1BaseFeeScalar": "0x0",
      "l1BlobBaseFee": "0x2a192237",
      "l1BlobBaseFeeScalar": "0x0",
      "l1Fee": "0x0",
      "l1GasPrice": "0x2a9a1902d",
      "l1GasUsed": "0x72a"
    },
    {
      "status": "0x1",
      "cumulativeGasUsed": "0x236cf0",
      "logs": [
        {
          "address": "0xfc653ba52d3d4919fc7806a621ef60b55ebc2859",
          "topics": [
            "0xcf1703a582c2d33aca5304d8715a8032f0db94e24a996a016453b343ea02d26b",
            "0x0000000000000000000000000000000000000000000000000000000000000014"
          ],
          "data": "0x0000000000000000000000000000000000000000000000000000000000000060000000000000000000000000000000000000000000000000000000006a32fcc0000000000000000000000000000000000000000000000000000000000000000100000000000000000000000000000000000000000000000000000000000000254e65746865726c616e647320746f206265617420456e676c616e64202847726f7570204429000000000000000000000000000000000000000000000000000000",
          "blockHash": "0xbefa89a41575e575a7e513d243701fc0fce88c561292439f34e05579d8825944",
          "blockNumber": "0x1a847aa",
          "blockTimestamp": "0x6a29453e",
          "transactionHash": "0xc69699d9188e9c62ba4ab948a4c80eb7fb391db112de60167999069edb16ca7b",
          "transactionIndex": "0x14",
          "logIndex": "0x13",
          "removed": false
        }
      ],
      "logsBloom": "0x00000000000000000000000000000000000000080000000000000000000000000000000000000000000000000000000020002020000000000000000000000000000000000000000000000000000000000000040000000000000000000000000000000000000000080000000000000000000000000000000000000000000000000000000000000000000000000000000000000000000400000000000000000000000000000000000020000000000000000000000000000000000000000080000000000000000000000000000000000000000000000000000000000000000000000000000000000000000000000000000000000000000000000000000000000000",
      "type": "0x2",
      "transactionHash": "0xc69699d9188e9c62ba4ab948a4c80eb7fb391db112de60167999069edb16ca7b",
      "transactionIndex": "0x14",
      "blockHash": "0xbefa89a41575e575a7e513d243701fc0fce88c561292439f34e05579d8825944",
      "blockNumber": "0x1a847aa",
      "gasUsed": "0x2346d",
      "effectiveGasPrice": "0xba43b7401",
      "blobGasUsed": "0x72",
      "from": "0xed1dc894220532920b7ca82d8c1758c3f86e2228",
      "to": "0xfc653ba52d3d4919fc7806a621ef60b55ebc2859",
      "contractAddress": null,
      "daFootprintGasScalar": "0x1",
      "l1BaseFeeScalar": "0x0",
      "l1BlobBaseFee": "0x2a192237",
      "l1BlobBaseFeeScalar": "0x0",
      "l1Fee": "0x0",
      "l1GasPrice": "0x2a9a1902d",
      "l1GasUsed": "0x72a"
    },
    {
      "status": "0x1",
      "cumulativeGasUsed": "0x24f218",
      "logs": [
        {
          "address": "0xfc653ba52d3d4919fc7806a621ef60b55ebc2859",
          "topics": [
            "0xcf1703a582c2d33aca5304d8715a8032f0db94e24a996a016453b343ea02d26b",
            "0x0000000000000000000000000000000000000000000000000000000000000015"
          ],
          "data": "0x0000000000000000000000000000000000000000000000000000000000000060000000000000000000000000000000000000000000000000000000006a2db6c00000000000000000000000000000000000000000000000000000000000000001000000000000000000000000000000000000000000000000000000000000001d537061696e20746f2062656174204a6170616e202847726f7570204529000000",
          "blockHash": "0xbefa89a41575e575a7e513d243701fc0fce88c561292439f34e05579d8825944",
          "blockNumber": "0x1a847aa",
          "blockTimestamp": "0x6a29453e",
          "transactionHash": "0x8e78bbe62b895cf80951eceb1b1b9926f23bfe1b65460d28c5e4848818b01769",
          "transactionIndex": "0x15",
          "logIndex": "0x14",
          "removed": false
        }
      ],
      "logsBloom": "0x00000000000000000000000000000000000000080000000000000000000000000000000000000000000000000000000020000020000000000000000000000000001000000000000000000000000000000000040000000000000000000000000000000000000000080000000000000000000000000000000000000000000000000000000000000000000000000000000000000000000000000000000000000000000000000000000000000000010000000000000000000000000000000080000000000000000000000000000000000000000000000000000000000000000000002000000000000000000000000000000000000000000000000000000000000000",
      "type": "0x2",
      "transactionHash": "0x8e78bbe62b895cf80951eceb1b1b9926f23bfe1b65460d28c5e4848818b01769",
      "transactionIndex": "0x15",
      "blockHash": "0xbefa89a41575e575a7e513d243701fc0fce88c561292439f34e05579d8825944",
      "blockNumber": "0x1a847aa",
      "gasUsed": "0x18528",
      "effectiveGasPrice": "0xba43b7401",
      "blobGasUsed": "0x6b",
      "from": "0xed1dc894220532920b7ca82d8c1758c3f86e2228",
      "to": "0xfc653ba52d3d4919fc7806a621ef60b55ebc2859",
      "contractAddress": null,
      "daFootprintGasScalar": "0x1",
      "l1BaseFeeScalar": "0x0",
      "l1BlobBaseFee": "0x2a192237",
      "l1BlobBaseFeeScalar": "0x0",
      "l1Fee": "0x0",
      "l1GasPrice": "0x2a9a1902d",
      "l1GasUsed": "0x6bf"
    },
    {
      "status": "0x1",
      "cumulativeGasUsed": "0x267758",
      "logs": [
        {
          "address": "0xfc653ba52d3d4919fc7806a621ef60b55ebc2859",
          "topics": [
            "0xcf1703a582c2d33aca5304d8715a8032f0db94e24a996a016453b343ea02d26b",
            "0x0000000000000000000000000000000000000000000000000000000000000016"
          ],
          "data": "0x0000000000000000000000000000000000000000000000000000000000000060000000000000000000000000000000000000000000000000000000006a3059c00000000000000000000000000000000000000000000000000000000000000001000000000000000000000000000000000000000000000000000000000000001f4a6170616e20746f20626561742055727567756179202847726f757020452900",
          "blockHash": "0xbefa89a41575e575a7e513d243701fc0fce88c561292439f34e05579d8825944",
          "blockNumber": "0x1a847aa",
          "blockTimestamp": "0x6a29453e",
          "transactionHash": "0x33b41f0d68a3d1f1c3b1c3917973fa0438e45202c2759b34dac2d3f8262c843b",
          "transactionIndex": "0x16",
          "logIndex": "0x15",
          "removed": false
        }
      ],
      "logsBloom": "0x00000000000000000000000000000000000000080000000000000000000000000000000000000000000000000000000020000020000000000000000000000000000000000000000800000000000000000000040000000000000000000000000000000000000000080000000000000000200000000000000000000000000000000000000000000000000000000000000000000000000000000000000000000000000000000000000000000000000000000000000000000000000000000080000000000000000000000000000000000000000000000000000000000000000000000000000000000000000000000000000000000000000000000008000000000000",
      "type": "0x2",
      "transactionHash": "0x33b41f0d68a3d1f1c3b1c3917973fa0438e45202c2759b34dac2d3f8262c843b",
      "transactionIndex": "0x16",
      "blockHash": "0xbefa89a41575e575a7e513d243701fc0fce88c561292439f34e05579d8825944",
      "blockNumber": "0x1a847aa",
      "gasUsed": "0x18540",
      "effectiveGasPrice": "0xba43b7401",
      "blobGasUsed": "0x6c",
      "from": "0xed1dc894220532920b7ca82d8c1758c3f86e2228",
      "to": "0xfc653ba52d3d4919fc7806a621ef60b55ebc2859",
      "contractAddress": null,
      "daFootprintGasScalar": "0x1",
      "l1BaseFeeScalar": "0x0",
      "l1BlobBaseFee": "0x2a192237",
      "l1BlobBaseFeeScalar": "0x0",
      "l1Fee": "0x0",
      "l1GasPrice": "0x2a9a1902d",
      "l1GasUsed": "0x6cd"
    },
    {
      "status": "0x1",
      "cumulativeGasUsed": "0x27fc98",
      "logs": [
        {
          "address": "0xfc653ba52d3d4919fc7806a621ef60b55ebc2859",
          "topics": [
            "0xcf1703a582c2d33aca5304d8715a8032f0db94e24a996a016453b343ea02d26b",
            "0x0000000000000000000000000000000000000000000000000000000000000017"
          ],
          "data": "0x0000000000000000000000000000000000000000000000000000000000000060000000000000000000000000000000000000000000000000000000006a32fcc00000000000000000000000000000000000000000000000000000000000000001000000000000000000000000000000000000000000000000000000000000001f5572756775617920746f206265617420537061696e202847726f757020452900",
          "blockHash": "0xbefa89a41575e575a7e513d243701fc0fce88c561292439f34e05579d8825944",
          "blockNumber": "0x1a847aa",
          "blockTimestamp": "0x6a29453e",
          "transactionHash": "0x98be1212505347f884c57beecc0c4ac06dbfd7bc0eac0b89c8cd15ee292cc7c4",
          "transactionIndex": "0x17",
          "logIndex": "0x16",
          "removed": false
        }
      ],
      "logsBloom": "0x00000000000000000000000000000000000000080000000000000000000000000000000000000000000000000000000020001020000000000000001000000000000000000000000000000000000000000000040000000000000000000000000000000000000000080000000000000000000000000000000000000000000000000000000000000000000000000000000000000000000000000000000000000000000000000000000000000000000000000000000000000000000000000080000000000000000000000000000000000000000000000000000000000000000000000000000000000000000000000000000000000000000000000000000000080000",
      "type": "0x2",
      "transactionHash": "0x98be1212505347f884c57beecc0c4ac06dbfd7bc0eac0b89c8cd15ee292cc7c4",
      "transactionIndex": "0x17",
      "blockHash": "0xbefa89a41575e575a7e513d243701fc0fce88c561292439f34e05579d8825944",
      "blockNumber": "0x1a847aa",
      "gasUsed": "0x18540",
      "effectiveGasPrice": "0xba43b7401",
      "blobGasUsed": "0x6c",
      "from": "0xed1dc894220532920b7ca82d8c1758c3f86e2228",
      "to": "0xfc653ba52d3d4919fc7806a621ef60b55ebc2859",
      "contractAddress": null,
      "daFootprintGasScalar": "0x1",
      "l1BaseFeeScalar": "0x0",
      "l1BlobBaseFee": "0x2a192237",
      "l1BlobBaseFeeScalar": "0x0",
      "l1Fee": "0x0",
      "l1GasPrice": "0x2a9a1902d",
      "l1GasUsed": "0x6cd"
    },
    {
      "status": "0x1",
      "cumulativeGasUsed": "0x2a30d5",
      "logs": [
        {
          "address": "0xfc653ba52d3d4919fc7806a621ef60b55ebc2859",
          "topics": [
            "0xcf1703a582c2d33aca5304d8715a8032f0db94e24a996a016453b343ea02d26b",
            "0x0000000000000000000000000000000000000000000000000000000000000018"
          ],
          "data": "0x0000000000000000000000000000000000000000000000000000000000000060000000000000000000000000000000000000000000000000000000006a2f08400000000000000000000000000000000000000000000000000000000000000001000000000000000000000000000000000000000000000000000000000000002142656c6769756d20746f20626561742053656e6567616c202847726f757020462900000000000000000000000000000000000000000000000000000000000000",
          "blockHash": "0xbefa89a41575e575a7e513d243701fc0fce88c561292439f34e05579d8825944",
          "blockNumber": "0x1a847aa",
          "blockTimestamp": "0x6a29453e",
          "transactionHash": "0x68deb97c9216a657ace894bc5466c222c6d13319d0ff59d8b01b29502ae30714",
          "transactionIndex": "0x18",
          "logIndex": "0x17",
          "removed": false
        }
      ],
      "logsBloom": "0x00000000000000000000000000000000000000080000000000000000000000000000000000000000000000000000000020000020000000000000000000000000000000000000000000000000000000000040040000000000000000000000000000000000000000080000000000000000000000000000000000000000000000000000000000000000000000000000000000000000000000000000000000000000000000000000000000000000000000000000000000000000000000000080000000100000000000000000000000000000000000000000000020000000000000000000000000000000000000000000000000000000000000000000000000000000",
      "type": "0x2",
      "transactionHash": "0x68deb97c9216a657ace894bc5466c222c6d13319d0ff59d8b01b29502ae30714",
      "transactionIndex": "0x18",
      "blockHash": "0xbefa89a41575e575a7e513d243701fc0fce88c561292439f34e05579d8825944",
      "blockNumber": "0x1a847aa",
      "gasUsed": "0x2343d",
      "effectiveGasPrice": "0xba43b7401",
      "blobGasUsed": "0x72",
      "from": "0xed1dc894220532920b7ca82d8c1758c3f86e2228",
      "to": "0xfc653ba52d3d4919fc7806a621ef60b55ebc2859",
      "contractAddress": null,
      "daFootprintGasScalar": "0x1",
      "l1BaseFeeScalar": "0x0",
      "l1BlobBaseFee": "0x2a192237",
      "l1BlobBaseFeeScalar": "0x0",
      "l1Fee": "0x0",
      "l1GasPrice": "0x2a9a1902d",
      "l1GasUsed": "0x72a"
    },
    {
      "status": "0x1",
      "cumulativeGasUsed": "0x2c6512",
      "logs": [
        {
          "address": "0xfc653ba52d3d4919fc7806a621ef60b55ebc2859",
          "topics": [
            "0xcf1703a582c2d33aca5304d8715a8032f0db94e24a996a016453b343ea02d26b",
            "0x0000000000000000000000000000000000000000000000000000000000000019"
          ],
          "data": "0x0000000000000000000000000000000000000000000000000000000000000060000000000000000000000000000000000000000000000000000000006a31ab400000000000000000000000000000000000000000000000000000000000000001000000000000000000000000000000000000000000000000000000000000002153656e6567616c20746f20626561742043726f61746961202847726f757020462900000000000000000000000000000000000000000000000000000000000000",
          "blockHash": "0xbefa89a41575e575a7e513d243701fc0fce88c561292439f34e05579d8825944",
          "blockNumber": "0x1a847aa",
          "blockTimestamp": "0x6a29453e",
          "transactionHash": "0xc94d7126e48b96f9f38c874a4000d1005e53c4ec02afb68914b31944786acfde",
          "transactionIndex": "0x19",
          "logIndex": "0x18",
          "removed": false
        }
      ],
      "logsBloom": "0x00000000000000000000000000000000000000080000000000000000000000000000000000000000000000000000000020000020000000800000000000000000000000000000000000000000000000000000040000000000000000000000000000000000000000080000000000000000000000000000020000000000000000000000000000000000000000000000000000000000000000000000000000000000000000000000000000000000000000000000000000000000000000000080000000000000000000000000000000000000000000000000000000000000000000000000000000000000000000000000000000000000000000000000008000000000",
      "type": "0x2",
      "transactionHash": "0xc94d7126e48b96f9f38c874a4000d1005e53c4ec02afb68914b31944786acfde",
      "transactionIndex": "0x19",
      "blockHash": "0xbefa89a41575e575a7e513d243701fc0fce88c561292439f34e05579d8825944",
      "blockNumber": "0x1a847aa",
      "gasUsed": "0x2343d",
      "effectiveGasPrice": "0xba43b7401",
      "blobGasUsed": "0x72",
      "from": "0xed1dc894220532920b7ca82d8c1758c3f86e2228",
      "to": "0xfc653ba52d3d4919fc7806a621ef60b55ebc2859",
      "contractAddress": null,
      "daFootprintGasScalar": "0x1",
      "l1BaseFeeScalar": "0x0",
      "l1BlobBaseFee": "0x2a192237",
      "l1BlobBaseFeeScalar": "0x0",
      "l1Fee": "0x0",
      "l1GasPrice": "0x2a9a1902d",
      "l1GasUsed": "0x72a"
    },
    {
      "status": "0x1",
      "cumulativeGasUsed": "0x2e994f",
      "logs": [
        {
          "address": "0xfc653ba52d3d4919fc7806a621ef60b55ebc2859",
          "topics": [
            "0xcf1703a582c2d33aca5304d8715a8032f0db94e24a996a016453b343ea02d26b",
            "0x000000000000000000000000000000000000000000000000000000000000001a"
          ],
          "data": "0x0000000000000000000000000000000000000000000000000000000000000060000000000000000000000000000000000000000000000000000000006a344e400000000000000000000000000000000000000000000000000000000000000001000000000000000000000000000000000000000000000000000000000000002143726f6174696120746f20626561742042656c6769756d202847726f757020462900000000000000000000000000000000000000000000000000000000000000",
          "blockHash": "0xbefa89a41575e575a7e513d243701fc0fce88c561292439f34e05579d8825944",
          "blockNumber": "0x1a847aa",
          "blockTimestamp": "0x6a29453e",
          "transactionHash": "0x5d48ed077527173f2942dbaba65b34477e642bd25aabc0c32eea5da92be85025",
          "transactionIndex": "0x1a",
          "logIndex": "0x19",
          "removed": false
        }
      ],
      "logsBloom": "0x00000000000000000000000000000000000000080000000000000000000000000000000000000000000000000000000020000020000000000000000000000000000000000000000000000000000000001000040000000000000000001000000000000000000000080000000000000000000000000000000000000000000000000000000000000000000000000000000000000000000000000000000000000000000000000000000000000000000000000000000000000000000000000080000000000000000000000000000000000000000000000000000000000000000000000000000000000000000000000000000000000000000004000000000000000000",
      "type": "0x2",
      "transactionHash": "0x5d48ed077527173f2942dbaba65b34477e642bd25aabc0c32eea5da92be85025",
      "transactionIndex": "0x1a",
      "blockHash": "0xbefa89a41575e575a7e513d243701fc0fce88c561292439f34e05579d8825944",
      "blockNumber": "0x1a847aa",
      "gasUsed": "0x2343d",
      "effectiveGasPrice": "0xba43b7401",
      "blobGasUsed": "0x72",
      "from": "0xed1dc894220532920b7ca82d8c1758c3f86e2228",
      "to": "0xfc653ba52d3d4919fc7806a621ef60b55ebc2859",
      "contractAddress": null,
      "daFootprintGasScalar": "0x1",
      "l1BaseFeeScalar": "0x0",
      "l1BlobBaseFee": "0x2a192237",
      "l1BlobBaseFeeScalar": "0x0",
      "l1Fee": "0x0",
      "l1GasPrice": "0x2a9a1902d",
      "l1GasUsed": "0x72a"
    }
  ],
  "libraries": [],
  "pending": [],
  "returns": {},
  "timestamp": 1781089599623,
  "chain": 11142220,
  "commit": "51ea7e5"
}