{
  "transactions": [
    {
      "hash": "0x585a57a6647231ea65fb78a680f2ec8761651c029c1ef408e128df13fb76bb47",
      "transactionType": "CALL",
      "contractName": null,
      "contractAddress": "0x91f8763b119ca7ec990eccd0db6a19ca13cafdda",
      "function": "createMarket(string,uint256,bool)",
      "arguments": [
        "Argentina to Win World Cup 2026?",
        "1781193600",
        "false"
      ],
      "transaction": {
        "from": "0xc4cf543d4b8e94b3b454a233720252753b5d301f",
        "to": "0x91f8763b119ca7ec990eccd0db6a19ca13cafdda",
        "gas": "0x28287",
        "value": "0x0",
        "input": "0x7d6563590000000000000000000000000000000000000000000000000000000000000060000000000000000000000000000000000000000000000000000000006a2adb8000000000000000000000000000000000000000000000000000000000000000000000000000000000000000000000000000000000000000000000000000000020417267656e74696e6120746f2057696e20576f726c642043757020323032363f",
        "nonce": "0x1",
        "chainId": "0xaa044c"
      },
      "additionalContracts": [],
      "isFixedGasLimit": false
    },
    {
      "hash": "0x372bdefdfcab38afaf46c2a3f600daac67a1bac1f265f49622314d2d56df0d34",
      "transactionType": "CALL",
      "contractName": null,
      "contractAddress": "0x91f8763b119ca7ec990eccd0db6a19ca13cafdda",
      "function": "createMarket(string,uint256,bool)",
      "arguments": [
        "France to Win World Cup 2026?",
        "1781193600",
        "false"
      ],
      "transaction": {
        "from": "0xc4cf543d4b8e94b3b454a233720252753b5d301f",
        "to": "0x91f8763b119ca7ec990eccd0db6a19ca13cafdda",
        "gas": "0x1ae16",
        "value": "0x0",
        "input": "0x7d6563590000000000000000000000000000000000000000000000000000000000000060000000000000000000000000000000000000000000000000000000006a2adb800000000000000000000000000000000000000000000000000000000000000000000000000000000000000000000000000000000000000000000000000000001d4672616e636520746f2057696e20576f726c642043757020323032363f000000",
        "nonce": "0x2",
        "chainId": "0xaa044c"
      },
      "additionalContracts": [],
      "isFixedGasLimit": false
    },
    {
      "hash": "0x0c6e37590a732684f792dc200c6180aa813b2f0ce86261c065341cbe73a5b606",
      "transactionType": "CALL",
      "contractName": null,
      "contractAddress": "0x91f8763b119ca7ec990eccd0db6a19ca13cafdda",
      "function": "createMarket(string,uint256,bool)",
      "arguments": [
        "England to Win World Cup 2026?",
        "1781193600",
        "false"
      ],
      "transaction": {
        "from": "0xc4cf543d4b8e94b3b454a233720252753b5d301f",
        "to": "0x91f8763b119ca7ec990eccd0db6a19ca13cafdda",
        "gas": "0x1ae25",
        "value": "0x0",
        "input": "0x7d6563590000000000000000000000000000000000000000000000000000000000000060000000000000000000000000000000000000000000000000000000006a2adb800000000000000000000000000000000000000000000000000000000000000000000000000000000000000000000000000000000000000000000000000000001e456e676c616e6420746f2057696e20576f726c642043757020323032363f0000",
        "nonce": "0x3",
        "chainId": "0xaa044c"
      },
      "additionalContracts": [],
      "isFixedGasLimit": false
    },
    {
      "hash": "0xa62f4d6a109a8a84050960c167ab536d559d38de2275bea8055c3ff7e9eae802",
      "transactionType": "CALL",
      "contractName": null,
      "contractAddress": "0x91f8763b119ca7ec990eccd0db6a19ca13cafdda",
      "function": "createMarket(string,uint256,bool)",
      "arguments": [
        "Brazil to Win World Cup 2026?",
        "1781193600",
        "false"
      ],
      "transaction": {
        "from": "0xc4cf543d4b8e94b3b454a233720252753b5d301f",
        "to": "0x91f8763b119ca7ec990eccd0db6a19ca13cafdda",
        "gas": "0x1ae16",
        "value": "0x0",
        "input": "0x7d6563590000000000000000000000000000000000000000000000000000000000000060000000000000000000000000000000000000000000000000000000006a2adb800000000000000000000000000000000000000000000000000000000000000000000000000000000000000000000000000000000000000000000000000000001d4272617a696c20746f2057696e20576f726c642043757020323032363f000000",
        "nonce": "0x4",
        "chainId": "0xaa044c"
      },
      "additionalContracts": [],
      "isFixedGasLimit": false
    },
    {
      "hash": "0x3b8eeea9ed2bda525ebf658a40cb49031fe0ae701be3bbe86441b3590a42c980",
      "transactionType": "CALL",
      "contractName": null,
      "contractAddress": "0x91f8763b119ca7ec990eccd0db6a19ca13cafdda",
      "function": "createMarket(string,uint256,bool)",
      "arguments": [
        "Spain to Win World Cup 2026?",
        "1781193600",
        "false"
      ],
      "transaction": {
        "from": "0xc4cf543d4b8e94b3b454a233720252753b5d301f",
        "to": "0x91f8763b119ca7ec990eccd0db6a19ca13cafdda",
        "gas": "0x1ae05",
        "value": "0x0",
        "input": "0x7d6563590000000000000000000000000000000000000000000000000000000000000060000000000000000000000000000000000000000000000000000000006a2adb800000000000000000000000000000000000000000000000000000000000000000000000000000000000000000000000000000000000000000000000000000001c537061696e20746f2057696e20576f726c642043757020323032363f00000000",
        "nonce": "0x5",
        "chainId": "0xaa044c"
      },
      "additionalContracts": [],
      "isFixedGasLimit": false
    },
    {
      "hash": "0xa3234653063284b9d63c9b264d616d5b15f59f1444858bcad7af51d68943c5e6",
      "transactionType": "CALL",
      "contractName": null,
      "contractAddress": "0x91f8763b119ca7ec990eccd0db6a19ca13cafdda",
      "function": "createMarket(string,uint256,bool)",
      "arguments": [
        "USA to Reach Semi-Finals?",
        "1781193600",
        "false"
      ],
      "transaction": {
        "from": "0xc4cf543d4b8e94b3b454a233720252753b5d301f",
        "to": "0x91f8763b119ca7ec990eccd0db6a19ca13cafdda",
        "gas": "0x1add3",
        "value": "0x0",
        "input": "0x7d6563590000000000000000000000000000000000000000000000000000000000000060000000000000000000000000000000000000000000000000000000006a2adb800000000000000000000000000000000000000000000000000000000000000000000000000000000000000000000000000000000000000000000000000000001955534120746f2052656163682053656d692d46696e616c733f00000000000000",
        "nonce": "0x6",
        "chainId": "0xaa044c"
      },
      "additionalContracts": [],
      "isFixedGasLimit": false
    },
    {
      "hash": "0xfd08353973e67d6bb92f294fa5ebda9fd7b45e42e60338cb31aa609f16fe40ca",
      "transactionType": "CALL",
      "contractName": null,
      "contractAddress": "0x91f8763b119ca7ec990eccd0db6a19ca13cafdda",
      "function": "createMarket(string,uint256,bool)",
      "arguments": [
        "Morocco to Reach Quarter-Finals?",
        "1781193600",
        "false"
      ],
      "transaction": {
        "from": "0xc4cf543d4b8e94b3b454a233720252753b5d301f",
        "to": "0x91f8763b119ca7ec990eccd0db6a19ca13cafdda",
        "gas": "0x246a3",
        "value": "0x0",
        "input": "0x7d6563590000000000000000000000000000000000000000000000000000000000000060000000000000000000000000000000000000000000000000000000006a2adb80000000000000000000000000000000000000000000000000000000000000000000000000000000000000000000000000000000000000000000000000000000204d6f726f63636f20746f20526561636820517561727465722d46696e616c733f",
        "nonce": "0x7",
        "chainId": "0xaa044c"
      },
      "additionalContracts": [],
      "isFixedGasLimit": false
    },
    {
      "hash": "0xd67416531c4a5271e8ac884b6e03f2afec41b2544e326d2f1da7786e673003ee",
      "transactionType": "CALL",
      "contractName": null,
      "contractAddress": "0x91f8763b119ca7ec990eccd0db6a19ca13cafdda",
      "function": "createMarket(string,uint256,bool)",
      "arguments": [
        "Final Match Over 2.5 Goals?",
        "1785110400",
        "false"
      ],
      "transaction": {
        "from": "0xc4cf543d4b8e94b3b454a233720252753b5d301f",
        "to": "0x91f8763b119ca7ec990eccd0db6a19ca13cafdda",
        "gas": "0x1adf4",
        "value": "0x0",
        "input": "0x7d6563590000000000000000000000000000000000000000000000000000000000000060000000000000000000000000000000000000000000000000000000006a669f800000000000000000000000000000000000000000000000000000000000000000000000000000000000000000000000000000000000000000000000000000001b46696e616c204d61746368204f76657220322e3520476f616c733f0000000000",
        "nonce": "0x8",
        "chainId": "0xaa044c"
      },
      "additionalContracts": [],
      "isFixedGasLimit": false
    },
    {
      "hash": "0xfbeee8b7d05a8fb1405bbdb1a1ed417419bcfe5b78fd75cc11de4d2144d2745c",
      "transactionType": "CALL",
      "contractName": null,
      "contractAddress": "0x91f8763b119ca7ec990eccd0db6a19ca13cafdda",
      "function": "createMarket(string,uint256,bool)",
      "arguments": [
        "Argentina to beat Canada (Group A)",
        "1781208000",
        "true"
      ],
      "transaction": {
        "from": "0xc4cf543d4b8e94b3b454a233720252753b5d301f",
        "to": "0x91f8763b119ca7ec990eccd0db6a19ca13cafdda",
        "gas": "0x33944",
        "value": "0x0",
        "input": "0x7d6563590000000000000000000000000000000000000000000000000000000000000060000000000000000000000000000000000000000000000000000000006a2b13c000000000000000000000000000000000000000000000000000000000000000010000000000000000000000000000000000000000000000000000000000000022417267656e74696e6120746f20626561742043616e616461202847726f7570204129000000000000000000000000000000000000000000000000000000000000",
        "nonce": "0x9",
        "chainId": "0xaa044c"
      },
      "additionalContracts": [],
      "isFixedGasLimit": false
    },
    {
      "hash": "0x71bda3328c04b15459bfe2418550d0aa056dd2d03d81fe7d8adfc03c2015acc9",
      "transactionType": "CALL",
      "contractName": null,
      "contractAddress": "0x91f8763b119ca7ec990eccd0db6a19ca13cafdda",
      "function": "createMarket(string,uint256,bool)",
      "arguments": [
        "Portugal to beat Argentina (Group A)",
        "1781380800",
        "true"
      ],
      "transaction": {
        "from": "0xc4cf543d4b8e94b3b454a233720252753b5d301f",
        "to": "0x91f8763b119ca7ec990eccd0db6a19ca13cafdda",
        "gas": "0x33967",
        "value": "0x0",
        "input": "0x7d6563590000000000000000000000000000000000000000000000000000000000000060000000000000000000000000000000000000000000000000000000006a2db6c000000000000000000000000000000000000000000000000000000000000000010000000000000000000000000000000000000000000000000000000000000024506f72747567616c20746f206265617420417267656e74696e61202847726f757020412900000000000000000000000000000000000000000000000000000000",
        "nonce": "0xa",
        "chainId": "0xaa044c"
      },
      "additionalContracts": [],
      "isFixedGasLimit": false
    },
    {
      "hash": "0xeccc7d55d1af75090dea8de4b24b5ed6d98159e657bc116e94e7d6c1fbb1464f",
      "transactionType": "CALL",
      "contractName": null,
      "contractAddress": "0x91f8763b119ca7ec990eccd0db6a19ca13cafdda",
      "function": "createMarket(string,uint256,bool)",
      "arguments": [
        "Canada to beat Portugal (Group A)",
        "1781553600",
        "true"
      ],
      "transaction": {
        "from": "0xc4cf543d4b8e94b3b454a233720252753b5d301f",
        "to": "0x91f8763b119ca7ec990eccd0db6a19ca13cafdda",
        "gas": "0x30b59",
        "value": "0x0",
        "input": "0x7d6563590000000000000000000000000000000000000000000000000000000000000060000000000000000000000000000000000000000000000000000000006a3059c00000000000000000000000000000000000000000000000000000000000000001000000000000000000000000000000000000000000000000000000000000002143616e61646120746f206265617420506f72747567616c202847726f757020412900000000000000000000000000000000000000000000000000000000000000",
        "nonce": "0xb",
        "chainId": "0xaa044c"
      },
      "additionalContracts": [],
      "isFixedGasLimit": false
    },
    {
      "hash": "0x5c977ef2f7c5cdd4d3cc83f0665e4b2a7fc963d9be54ece57659935fac5b3c0e",
      "transactionType": "CALL",
      "contractName": null,
      "contractAddress": "0x91f8763b119ca7ec990eccd0db6a19ca13cafdda",
      "function": "createMarket(string,uint256,bool)",
      "arguments": [
        "France to beat Mexico (Group B)",
        "1781294400",
        "true"
      ],
      "transaction": {
        "from": "0xc4cf543d4b8e94b3b454a233720252753b5d301f",
        "to": "0x91f8763b119ca7ec990eccd0db6a19ca13cafdda",
        "gas": "0x219a6",
        "value": "0x0",
        "input": "0x7d6563590000000000000000000000000000000000000000000000000000000000000060000000000000000000000000000000000000000000000000000000006a2c65400000000000000000000000000000000000000000000000000000000000000001000000000000000000000000000000000000000000000000000000000000001f4672616e636520746f2062656174204d657869636f202847726f757020422900",
        "nonce": "0xc",
        "chainId": "0xaa044c"
      },
      "additionalContracts": [],
      "isFixedGasLimit": false
    },
    {
      "hash": "0x2c312418e9694961131ade5fafebacdf9e4c8bfbaeeb6e934fdf0c724e63cf37",
      "transactionType": "CALL",
      "contractName": null,
      "contractAddress": "0x91f8763b119ca7ec990eccd0db6a19ca13cafdda",
      "function": "createMarket(string,uint256,bool)",
      "arguments": [
        "Mexico to beat Germany (Group B)",
        "1781467200",
        "true"
      ],
      "transaction": {
        "from": "0xc4cf543d4b8e94b3b454a233720252753b5d301f",
        "to": "0x91f8763b119ca7ec990eccd0db6a19ca13cafdda",
        "gas": "0x2b864",
        "value": "0x0",
        "input": "0x7d6563590000000000000000000000000000000000000000000000000000000000000060000000000000000000000000000000000000000000000000000000006a2f0840000000000000000000000000000000000000000000000000000000000000000100000000000000000000000000000000000000000000000000000000000000204d657869636f20746f2062656174204765726d616e79202847726f7570204229",
        "nonce": "0xd",
        "chainId": "0xaa044c"
      },
      "additionalContracts": [],
      "isFixedGasLimit": false
    },
    {
      "hash": "0x1e90931a209150f5fe426bddb27e52ecd2bcc70abe8d9266560d8e78a8d63a8a",
      "transactionType": "CALL",
      "contractName": null,
      "contractAddress": "0x91f8763b119ca7ec990eccd0db6a19ca13cafdda",
      "function": "createMarket(string,uint256,bool)",
      "arguments": [
        "Germany to beat France (Group B)",
        "1781640000",
        "true"
      ],
      "transaction": {
        "from": "0xc4cf543d4b8e94b3b454a233720252753b5d301f",
        "to": "0x91f8763b119ca7ec990eccd0db6a19ca13cafdda",
        "gas": "0x2b864",
        "value": "0x0",
        "input": "0x7d6563590000000000000000000000000000000000000000000000000000000000000060000000000000000000000000000000000000000000000000000000006a31ab40000000000000000000000000000000000000000000000000000000000000000100000000000000000000000000000000000000000000000000000000000000204765726d616e7920746f2062656174204672616e6365202847726f7570204229",
        "nonce": "0xe",
        "chainId": "0xaa044c"
      },
      "additionalContracts": [],
      "isFixedGasLimit": false
    },
    {
      "hash": "0x4dda3aa72e3a62f1a49afd3332bf46c881095127fe872dfc387fdaca6009b430",
      "transactionType": "CALL",
      "contractName": null,
      "contractAddress": "0x91f8763b119ca7ec990eccd0db6a19ca13cafdda",
      "function": "createMarket(string,uint256,bool)",
      "arguments": [
        "Brazil to beat Morocco (Group C)",
        "1781294400",
        "true"
      ],
      "transaction": {
        "from": "0xc4cf543d4b8e94b3b454a233720252753b5d301f",
        "to": "0x91f8763b119ca7ec990eccd0db6a19ca13cafdda",
        "gas": "0x2b864",
        "value": "0x0",
        "input": "0x7d6563590000000000000000000000000000000000000000000000000000000000000060000000000000000000000000000000000000000000000000000000006a2c6540000000000000000000000000000000000000000000000000000000000000000100000000000000000000000000000000000000000000000000000000000000204272617a696c20746f2062656174204d6f726f63636f202847726f7570204329",
        "nonce": "0xf",
        "chainId": "0xaa044c"
      },
      "additionalContracts": [],
      "isFixedGasLimit": false
    },
    {
      "hash": "0xac1ccd49f569e8050b16a2c41aa05755fc27e8d15d9adfa371bfff4279914539",
      "transactionType": "CALL",
      "contractName": null,
      "contractAddress": "0x91f8763b119ca7ec990eccd0db6a19ca13cafdda",
      "function": "createMarket(string,uint256,bool)",
      "arguments": [
        "Morocco to beat Colombia (Group C)",
        "1781467200",
        "true"
      ],
      "transaction": {
        "from": "0xc4cf543d4b8e94b3b454a233720252753b5d301f",
        "to": "0x91f8763b119ca7ec990eccd0db6a19ca13cafdda",
        "gas": "0x33944",
        "value": "0x0",
        "input": "0x7d6563590000000000000000000000000000000000000000000000000000000000000060000000000000000000000000000000000000000000000000000000006a2f0840000000000000000000000000000000000000000000000000000000000000000100000000000000000000000000000000000000000000000000000000000000224d6f726f63636f20746f206265617420436f6c6f6d626961202847726f7570204329000000000000000000000000000000000000000000000000000000000000",
        "nonce": "0x10",
        "chainId": "0xaa044c"
      },
      "additionalContracts": [],
      "isFixedGasLimit": false
    },
    {
      "hash": "0xdc4b7b7b7b29cf1e3b130b465f16ec3fc2fdac2209ad6eae4913c5ee82750d37",
      "transactionType": "CALL",
      "contractName": null,
      "contractAddress": "0x91f8763b119ca7ec990eccd0db6a19ca13cafdda",
      "function": "createMarket(string,uint256,bool)",
      "arguments": [
        "Colombia to beat Brazil (Group C)",
        "1781640000",
        "true"
      ],
      "transaction": {
        "from": "0xc4cf543d4b8e94b3b454a233720252753b5d301f",
        "to": "0x91f8763b119ca7ec990eccd0db6a19ca13cafdda",
        "gas": "0x30b59",
        "value": "0x0",
        "input": "0x7d6563590000000000000000000000000000000000000000000000000000000000000060000000000000000000000000000000000000000000000000000000006a31ab4000000000000000000000000000000000000000000000000000000000000000010000000000000000000000000000000000000000000000000000000000000021436f6c6f6d62696120746f2062656174204272617a696c202847726f757020432900000000000000000000000000000000000000000000000000000000000000",
        "nonce": "0x11",
        "chainId": "0xaa044c"
      },
      "additionalContracts": [],
      "isFixedGasLimit": false
    },
    {
      "hash": "0x4e242d25b0aac9f2bb0ea99ae01ceef0414d0b131091e45da13f2890131df8fb",
      "transactionType": "CALL",
      "contractName": null,
      "contractAddress": "0x91f8763b119ca7ec990eccd0db6a19ca13cafdda",
      "function": "createMarket(string,uint256,bool)",
      "arguments": [
        "England to beat USA (Group D)",
        "1781380800",
        "true"
      ],
      "transaction": {
        "from": "0xc4cf543d4b8e94b3b454a233720252753b5d301f",
        "to": "0x91f8763b119ca7ec990eccd0db6a19ca13cafdda",
        "gas": "0x21985",
        "value": "0x0",
        "input": "0x7d6563590000000000000000000000000000000000000000000000000000000000000060000000000000000000000000000000000000000000000000000000006a2db6c00000000000000000000000000000000000000000000000000000000000000001000000000000000000000000000000000000000000000000000000000000001d456e676c616e6420746f206265617420555341202847726f7570204429000000",
        "nonce": "0x12",
        "chainId": "0xaa044c"
      },
      "additionalContracts": [],
      "isFixedGasLimit": false
    },
    {
      "hash": "0xaa5cf91c90592df3844d0cca25bdd9b4a6b6e0b24af48e2ed95dd461939d7619",
      "transactionType": "CALL",
      "contractName": null,
      "contractAddress": "0x91f8763b119ca7ec990eccd0db6a19ca13cafdda",
      "function": "createMarket(string,uint256,bool)",
      "arguments": [
        "USA to beat Netherlands (Group D)",
        "1781553600",
        "true"
      ],
      "transaction": {
        "from": "0xc4cf543d4b8e94b3b454a233720252753b5d301f",
        "to": "0x91f8763b119ca7ec990eccd0db6a19ca13cafdda",
        "gas": "0x30b59",
        "value": "0x0",
        "input": "0x7d6563590000000000000000000000000000000000000000000000000000000000000060000000000000000000000000000000000000000000000000000000006a3059c00000000000000000000000000000000000000000000000000000000000000001000000000000000000000000000000000000000000000000000000000000002155534120746f2062656174204e65746865726c616e6473202847726f757020442900000000000000000000000000000000000000000000000000000000000000",
        "nonce": "0x13",
        "chainId": "0xaa044c"
      },
      "additionalContracts": [],
      "isFixedGasLimit": false
    },
    {
      "hash": "0x3c8eedfe8b6e5da408ad70dde6b880a68d3a8c4c6ff350d667e889f453920f85",
      "transactionType": "CALL",
      "contractName": null,
      "contractAddress": "0x91f8763b119ca7ec990eccd0db6a19ca13cafdda",
      "function": "createMarket(string,uint256,bool)",
      "arguments": [
        "Netherlands to beat England (Group D)",
        "1781726400",
        "true"
      ],
      "transaction": {
        "from": "0xc4cf543d4b8e94b3b454a233720252753b5d301f",
        "to": "0x91f8763b119ca7ec990eccd0db6a19ca13cafdda",
        "gas": "0x30b9b",
        "value": "0x0",
        "input": "0x7d6563590000000000000000000000000000000000000000000000000000000000000060000000000000000000000000000000000000000000000000000000006a32fcc0000000000000000000000000000000000000000000000000000000000000000100000000000000000000000000000000000000000000000000000000000000254e65746865726c616e647320746f206265617420456e676c616e64202847726f7570204429000000000000000000000000000000000000000000000000000000",
        "nonce": "0x14",
        "chainId": "0xaa044c"
      },
      "additionalContracts": [],
      "isFixedGasLimit": false
    },
    {
      "hash": "0xf0f3f8a2811cd8df23fe613c145b511a8aad99ad6e6f6ad8c25292ee3e93c6c8",
      "transactionType": "CALL",
      "contractName": null,
      "contractAddress": "0x91f8763b119ca7ec990eccd0db6a19ca13cafdda",
      "function": "createMarket(string,uint256,bool)",
      "arguments": [
        "Spain to beat Japan (Group E)",
        "1781380800",
        "true"
      ],
      "transaction": {
        "from": "0xc4cf543d4b8e94b3b454a233720252753b5d301f",
        "to": "0x91f8763b119ca7ec990eccd0db6a19ca13cafdda",
        "gas": "0x21985",
        "value": "0x0",
        "input": "0x7d6563590000000000000000000000000000000000000000000000000000000000000060000000000000000000000000000000000000000000000000000000006a2db6c00000000000000000000000000000000000000000000000000000000000000001000000000000000000000000000000000000000000000000000000000000001d537061696e20746f2062656174204a6170616e202847726f7570204529000000",
        "nonce": "0x15",
        "chainId": "0xaa044c"
      },
      "additionalContracts": [],
      "isFixedGasLimit": false
    },
    {
      "hash": "0x8acb04bced0abbd9b8ad97cdc95920f4f632b871670a0d838b427165d4c07193",
      "transactionType": "CALL",
      "contractName": null,
      "contractAddress": "0x91f8763b119ca7ec990eccd0db6a19ca13cafdda",
      "function": "createMarket(string,uint256,bool)",
      "arguments": [
        "Japan to beat Uruguay (Group E)",
        "1781553600",
        "true"
      ],
      "transaction": {
        "from": "0xc4cf543d4b8e94b3b454a233720252753b5d301f",
        "to": "0x91f8763b119ca7ec990eccd0db6a19ca13cafdda",
        "gas": "0x219a6",
        "value": "0x0",
        "input": "0x7d6563590000000000000000000000000000000000000000000000000000000000000060000000000000000000000000000000000000000000000000000000006a3059c00000000000000000000000000000000000000000000000000000000000000001000000000000000000000000000000000000000000000000000000000000001f4a6170616e20746f20626561742055727567756179202847726f757020452900",
        "nonce": "0x16",
        "chainId": "0xaa044c"
      },
      "additionalContracts": [],
      "isFixedGasLimit": false
    },
    {
      "hash": "0xc5c47550bf7973f8fcfe6adb422bc02178d9871ce587a9258aea14a1696af467",
      "transactionType": "CALL",
      "contractName": null,
      "contractAddress": "0x91f8763b119ca7ec990eccd0db6a19ca13cafdda",
      "function": "createMarket(string,uint256,bool)",
      "arguments": [
        "Uruguay to beat Spain (Group E)",
        "1781726400",
        "true"
      ],
      "transaction": {
        "from": "0xc4cf543d4b8e94b3b454a233720252753b5d301f",
        "to": "0x91f8763b119ca7ec990eccd0db6a19ca13cafdda",
        "gas": "0x219a6",
        "value": "0x0",
        "input": "0x7d6563590000000000000000000000000000000000000000000000000000000000000060000000000000000000000000000000000000000000000000000000006a32fcc00000000000000000000000000000000000000000000000000000000000000001000000000000000000000000000000000000000000000000000000000000001f5572756775617920746f206265617420537061696e202847726f757020452900",
        "nonce": "0x17",
        "chainId": "0xaa044c"
      },
      "additionalContracts": [],
      "isFixedGasLimit": false
    },
    {
      "hash": "0x511e1f3c81f5a988c1e83a656c49558af69f81ccc6790f1417d92091d94472e1",
      "transactionType": "CALL",
      "contractName": null,
      "contractAddress": "0x91f8763b119ca7ec990eccd0db6a19ca13cafdda",
      "function": "createMarket(string,uint256,bool)",
      "arguments": [
        "Belgium to beat Senegal (Group F)",
        "1781467200",
        "true"
      ],
      "transaction": {
        "from": "0xc4cf543d4b8e94b3b454a233720252753b5d301f",
        "to": "0x91f8763b119ca7ec990eccd0db6a19ca13cafdda",
        "gas": "0x30b59",
        "value": "0x0",
        "input": "0x7d6563590000000000000000000000000000000000000000000000000000000000000060000000000000000000000000000000000000000000000000000000006a2f08400000000000000000000000000000000000000000000000000000000000000001000000000000000000000000000000000000000000000000000000000000002142656c6769756d20746f20626561742053656e6567616c202847726f757020462900000000000000000000000000000000000000000000000000000000000000",
        "nonce": "0x18",
        "chainId": "0xaa044c"
      },
      "additionalContracts": [],
      "isFixedGasLimit": false
    },
    {
      "hash": "0x4636d70bc86b3ebba5e38ad0c2f39eefac53ace5a9eac293578e439d573dff1b",
      "transactionType": "CALL",
      "contractName": null,
      "contractAddress": "0x91f8763b119ca7ec990eccd0db6a19ca13cafdda",
      "function": "createMarket(string,uint256,bool)",
      "arguments": [
        "Senegal to beat Croatia (Group F)",
        "1781640000",
        "true"
      ],
      "transaction": {
        "from": "0xc4cf543d4b8e94b3b454a233720252753b5d301f",
        "to": "0x91f8763b119ca7ec990eccd0db6a19ca13cafdda",
        "gas": "0x30b59",
        "value": "0x0",
        "input": "0x7d6563590000000000000000000000000000000000000000000000000000000000000060000000000000000000000000000000000000000000000000000000006a31ab400000000000000000000000000000000000000000000000000000000000000001000000000000000000000000000000000000000000000000000000000000002153656e6567616c20746f20626561742043726f61746961202847726f757020462900000000000000000000000000000000000000000000000000000000000000",
        "nonce": "0x19",
        "chainId": "0xaa044c"
      },
      "additionalContracts": [],
      "isFixedGasLimit": false
    },
    {
      "hash": "0x318a5309e46f0617e3a028533865263b0da1fff4f98f76e7f2030fd181f9efb8",
      "transactionType": "CALL",
      "contractName": null,
      "contractAddress": "0x91f8763b119ca7ec990eccd0db6a19ca13cafdda",
      "function": "createMarket(string,uint256,bool)",
      "arguments": [
        "Croatia to beat Belgium (Group F)",
        "1781812800",
        "true"
      ],
      "transaction": {
        "from": "0xc4cf543d4b8e94b3b454a233720252753b5d301f",
        "to": "0x91f8763b119ca7ec990eccd0db6a19ca13cafdda",
        "gas": "0x30b59",
        "value": "0x0",
        "input": "0x7d6563590000000000000000000000000000000000000000000000000000000000000060000000000000000000000000000000000000000000000000000000006a344e400000000000000000000000000000000000000000000000000000000000000001000000000000000000000000000000000000000000000000000000000000002143726f6174696120746f20626561742042656c6769756d202847726f757020462900000000000000000000000000000000000000000000000000000000000000",
        "nonce": "0x1a",
        "chainId": "0xaa044c"
      },
      "additionalContracts": [],
      "isFixedGasLimit": false
    }
  ],
  "receipts": [
    {
      "status": "0x1",
      "cumulativeGasUsed": "0x2a641",
      "logs": [
        {
          "address": "0x91f8763b119ca7ec990eccd0db6a19ca13cafdda",
          "topics": [
            "0xcf1703a582c2d33aca5304d8715a8032f0db94e24a996a016453b343ea02d26b",
            "0x0000000000000000000000000000000000000000000000000000000000000001"
          ],
          "data": "0x0000000000000000000000000000000000000000000000000000000000000060000000000000000000000000000000000000000000000000000000006a2adb8000000000000000000000000000000000000000000000000000000000000000000000000000000000000000000000000000000000000000000000000000000020417267656e74696e6120746f2057696e20576f726c642043757020323032363f",
          "blockHash": "0xf7bb206c5b27110d2a34d7ee2e69d6d43e00e5a6625151a2620a50678cfed5af",
          "blockNumber": "0x1a07a08",
          "blockTimestamp": "0x6a21779c",
          "transactionHash": "0x0c6e37590a732684f792dc200c6180aa813b2f0ce86261c065341cbe73a5b606",
          "transactionIndex": "0x1",
          "logIndex": "0x0",
          "removed": false
        }
      ],
      "logsBloom": "0x00000000000000000000000000000000000000000000000000000000000000000008000000000000000000000000000020000000000000000000000000040000000000000000000000000000000000000000000000040000000000000000000000000000000000080000000000000000000000000000000000000000000000000000000000000000000000000000000000000000000000000000000000000000000000000000000000000000000000000000000000000000000000000080000000000000000000000000000000000000000000000000000000000000000040000000000000800000000000000000000000000000000000000000000000000001",
      "type": "0x2",
      "transactionHash": "0x0c6e37590a732684f792dc200c6180aa813b2f0ce86261c065341cbe73a5b606",
      "transactionIndex": "0x1",
      "blockHash": "0xf7bb206c5b27110d2a34d7ee2e69d6d43e00e5a6625151a2620a50678cfed5af",
      "blockNumber": "0x1a07a08",
      "gasUsed": "0x1d12f",
      "effectiveGasPrice": "0xba43b7401",
      "blobGasUsed": "0x67",
      "from": "0xc4cf543d4b8e94b3b454a233720252753b5d301f",
      "to": "0x91f8763b119ca7ec990eccd0db6a19ca13cafdda",
      "contractAddress": null,
      "daFootprintGasScalar": "0x1",
      "l1BaseFeeScalar": "0x0",
      "l1BlobBaseFee": "0xc73df21",
      "l1BlobBaseFeeScalar": "0x0",
      "l1Fee": "0x0",
      "l1GasPrice": "0xd03ec2a3",
      "l1GasUsed": "0x67c"
    },
    {
      "status": "0x1",
      "cumulativeGasUsed": "0x3dda1",
      "logs": [
        {
          "address": "0x91f8763b119ca7ec990eccd0db6a19ca13cafdda",
          "topics": [
            "0xcf1703a582c2d33aca5304d8715a8032f0db94e24a996a016453b343ea02d26b",
            "0x0000000000000000000000000000000000000000000000000000000000000002"
          ],
          "data": "0x0000000000000000000000000000000000000000000000000000000000000060000000000000000000000000000000000000000000000000000000006a2adb800000000000000000000000000000000000000000000000000000000000000000000000000000000000000000000000000000000000000000000000000000001d4672616e636520746f2057696e20576f726c642043757020323032363f000000",
          "blockHash": "0xf7bb206c5b27110d2a34d7ee2e69d6d43e00e5a6625151a2620a50678cfed5af",
          "blockNumber": "0x1a07a08",
          "blockTimestamp": "0x6a21779c",
          "transactionHash": "0x585a57a6647231ea65fb78a680f2ec8761651c029c1ef408e128df13fb76bb47",
          "transactionIndex": "0x2",
          "logIndex": "0x1",
          "removed": false
        }
      ],
      "logsBloom": "0x04000000000000000000000000000000000000000000000000000000000000000008000000000000000000000000000020000000000000000000000000000000000000000000000000000000000000000000000000000000000000000000000000000000000000080000000000000000000000000000000000000000000000000000000000000000000000000000000000000000000000000000000000000000000000000000000000000100000000000000000000000000000000000080000000000000000000000000000000000000000000000000000000000000000000000000000000800000000000000000000000000000008000000000000000000001",
      "type": "0x2",
      "transactionHash": "0x585a57a6647231ea65fb78a680f2ec8761651c029c1ef408e128df13fb76bb47",
      "transactionIndex": "0x2",
      "blockHash": "0xf7bb206c5b27110d2a34d7ee2e69d6d43e00e5a6625151a2620a50678cfed5af",
      "blockNumber": "0x1a07a08",
      "gasUsed": "0x13760",
      "effectiveGasPrice": "0xba43b7401",
      "blobGasUsed": "0x66",
      "from": "0xc4cf543d4b8e94b3b454a233720252753b5d301f",
      "to": "0x91f8763b119ca7ec990eccd0db6a19ca13cafdda",
      "contractAddress": null,
      "daFootprintGasScalar": "0x1",
      "l1BaseFeeScalar": "0x0",
      "l1BlobBaseFee": "0xc73df21",
      "l1BlobBaseFeeScalar": "0x0",
      "l1Fee": "0x0",
      "l1GasPrice": "0xd03ec2a3",
      "l1GasUsed": "0x66f"
    },
    {
      "status": "0x1",
      "cumulativeGasUsed": "0x5150d",
      "logs": [
        {
          "address": "0x91f8763b119ca7ec990eccd0db6a19ca13cafdda",
          "topics": [
            "0xcf1703a582c2d33aca5304d8715a8032f0db94e24a996a016453b343ea02d26b",
            "0x0000000000000000000000000000000000000000000000000000000000000003"
          ],
          "data": "0x0000000000000000000000000000000000000000000000000000000000000060000000000000000000000000000000000000000000000000000000006a2adb800000000000000000000000000000000000000000000000000000000000000000000000000000000000000000000000000000000000000000000000000000001e456e676c616e6420746f2057696e20576f726c642043757020323032363f0000",
          "blockHash": "0xf7bb206c5b27110d2a34d7ee2e69d6d43e00e5a6625151a2620a50678cfed5af",
          "blockNumber": "0x1a07a08",
          "blockTimestamp": "0x6a21779c",
          "transactionHash": "0xa62f4d6a109a8a84050960c167ab536d559d38de2275bea8055c3ff7e9eae802",
          "transactionIndex": "0x3",
          "logIndex": "0x2",
          "removed": false
        }
      ],
      "logsBloom": "0x00000000000000000000000000000000000000000000000000000000000000000008000000000000000000000000000020000000020000000000000000000000000000000000000000000000000000000000000000000000000000000000000000000000000000080000000000000000000000000000000000000000000000000000000000000000000000000000000000000000000000000000000000000000000000000000000000000000000000000000000000800000000000000080400000000000000000000000000000000000000000000000000000000000000000000000000000800000000000000000000000000000000000000000000000000001",
      "type": "0x2",
      "transactionHash": "0xa62f4d6a109a8a84050960c167ab536d559d38de2275bea8055c3ff7e9eae802",
      "transactionIndex": "0x3",
      "blockHash": "0xf7bb206c5b27110d2a34d7ee2e69d6d43e00e5a6625151a2620a50678cfed5af",
      "blockNumber": "0x1a07a08",
      "gasUsed": "0x1376c",
      "effectiveGasPrice": "0xba43b7401",
      "blobGasUsed": "0x67",
      "from": "0xc4cf543d4b8e94b3b454a233720252753b5d301f",
      "to": "0x91f8763b119ca7ec990eccd0db6a19ca13cafdda",
      "contractAddress": null,
      "daFootprintGasScalar": "0x1",
      "l1BaseFeeScalar": "0x0",
      "l1BlobBaseFee": "0xc73df21",
      "l1BlobBaseFeeScalar": "0x0",
      "l1Fee": "0x0",
      "l1GasPrice": "0xd03ec2a3",
      "l1GasUsed": "0x67c"
    },
    {
      "status": "0x1",
      "cumulativeGasUsed": "0x64c6d",
      "logs": [
        {
          "address": "0x91f8763b119ca7ec990eccd0db6a19ca13cafdda",
          "topics": [
            "0xcf1703a582c2d33aca5304d8715a8032f0db94e24a996a016453b343ea02d26b",
            "0x0000000000000000000000000000000000000000000000000000000000000004"
          ],
          "data": "0x0000000000000000000000000000000000000000000000000000000000000060000000000000000000000000000000000000000000000000000000006a2adb800000000000000000000000000000000000000000000000000000000000000000000000000000000000000000000000000000000000000000000000000000001d4272617a696c20746f2057696e20576f726c642043757020323032363f000000",
          "blockHash": "0xf7bb206c5b27110d2a34d7ee2e69d6d43e00e5a6625151a2620a50678cfed5af",
          "blockNumber": "0x1a07a08",
          "blockTimestamp": "0x6a21779c",
          "transactionHash": "0x372bdefdfcab38afaf46c2a3f600daac67a1bac1f265f49622314d2d56df0d34",
          "transactionIndex": "0x4",
          "logIndex": "0x3",
          "removed": false
        }
      ],
      "logsBloom": "0x00000000000000000000000000000000000000000000000000000000000000000008000000000000000000000000000020000000000000000000000000000000000000000000000000000000000000000000000000000000000000000000000008000000000000080000000000000000000000000000000000000000000000000000000000000000000000000000000000000000000000000000000000000000000000000000000000000000000000000000000000000000002000000080000000000000000000000000000000000000000000008000000000000000000000000000000000800000000000000000000000000000000000000000000000000001",
      "type": "0x2",
      "transactionHash": "0x372bdefdfcab38afaf46c2a3f600daac67a1bac1f265f49622314d2d56df0d34",
      "transactionIndex": "0x4",
      "blockHash": "0xf7bb206c5b27110d2a34d7ee2e69d6d43e00e5a6625151a2620a50678cfed5af",
      "blockNumber": "0x1a07a08",
      "gasUsed": "0x13760",
      "effectiveGasPrice": "0xba43b7401",
      "blobGasUsed": "0x66",
      "from": "0xc4cf543d4b8e94b3b454a233720252753b5d301f",
      "to": "0x91f8763b119ca7ec990eccd0db6a19ca13cafdda",
      "contractAddress": null,
      "daFootprintGasScalar": "0x1",
      "l1BaseFeeScalar": "0x0",
      "l1BlobBaseFee": "0xc73df21",
      "l1BlobBaseFeeScalar": "0x0",
      "l1Fee": "0x0",
      "l1GasPrice": "0xd03ec2a3",
      "l1GasUsed": "0x66f"
    },
    {
      "status": "0x1",
      "cumulativeGasUsed": "0x783c1",
      "logs": [
        {
          "address": "0x91f8763b119ca7ec990eccd0db6a19ca13cafdda",
          "topics": [
            "0xcf1703a582c2d33aca5304d8715a8032f0db94e24a996a016453b343ea02d26b",
            "0x0000000000000000000000000000000000000000000000000000000000000005"
          ],
          "data": "0x0000000000000000000000000000000000000000000000000000000000000060000000000000000000000000000000000000000000000000000000006a2adb800000000000000000000000000000000000000000000000000000000000000000000000000000000000000000000000000000000000000000000000000000001c537061696e20746f2057696e20576f726c642043757020323032363f00000000",
          "blockHash": "0xf7bb206c5b27110d2a34d7ee2e69d6d43e00e5a6625151a2620a50678cfed5af",
          "blockNumber": "0x1a07a08",
          "blockTimestamp": "0x6a21779c",
          "transactionHash": "0x3b8eeea9ed2bda525ebf658a40cb49031fe0ae701be3bbe86441b3590a42c980",
          "transactionIndex": "0x5",
          "logIndex": "0x4",
          "removed": false
        }
      ],
      "logsBloom": "0x00000000000000000000000000000000000000000000000000000000000000000008000000000000000000000000000020000000000000000000000000000000000010000000000000000000000000000000000000000000000000000000000000000000000000080000000000000000000000000000000000000000000000000000000000000000000000000000001000000800000000000000000000000000000000000000000000000000000000000000000000000000000000000080000000000000000000000000000000000000000000000000000000000000000000000000000000800000000000000000000000000000000000000000000000000001",
      "type": "0x2",
      "transactionHash": "0x3b8eeea9ed2bda525ebf658a40cb49031fe0ae701be3bbe86441b3590a42c980",
      "transactionIndex": "0x5",
      "blockHash": "0xf7bb206c5b27110d2a34d7ee2e69d6d43e00e5a6625151a2620a50678cfed5af",
      "blockNumber": "0x1a07a08",
      "gasUsed": "0x13754",
      "effectiveGasPrice": "0xba43b7401",
      "blobGasUsed": "0x66",
      "from": "0xc4cf543d4b8e94b3b454a233720252753b5d301f",
      "to": "0x91f8763b119ca7ec990eccd0db6a19ca13cafdda",
      "contractAddress": null,
      "daFootprintGasScalar": "0x1",
      "l1BaseFeeScalar": "0x0",
      "l1BlobBaseFee": "0xc73df21",
      "l1BlobBaseFeeScalar": "0x0",
      "l1Fee": "0x0",
      "l1GasPrice": "0xd03ec2a3",
      "l1GasUsed": "0x662"
    },
    {
      "status": "0x1",
      "cumulativeGasUsed": "0x8baf1",
      "logs": [
        {
          "address": "0x91f8763b119ca7ec990eccd0db6a19ca13cafdda",
          "topics": [
            "0xcf1703a582c2d33aca5304d8715a8032f0db94e24a996a016453b343ea02d26b",
            "0x0000000000000000000000000000000000000000000000000000000000000006"
          ],
          "data": "0x0000000000000000000000000000000000000000000000000000000000000060000000000000000000000000000000000000000000000000000000006a2adb800000000000000000000000000000000000000000000000000000000000000000000000000000000000000000000000000000000000000000000000000000001955534120746f2052656163682053656d692d46696e616c733f00000000000000",
          "blockHash": "0xf7bb206c5b27110d2a34d7ee2e69d6d43e00e5a6625151a2620a50678cfed5af",
          "blockNumber": "0x1a07a08",
          "blockTimestamp": "0x6a21779c",
          "transactionHash": "0xa3234653063284b9d63c9b264d616d5b15f59f1444858bcad7af51d68943c5e6",
          "transactionIndex": "0x6",
          "logIndex": "0x5",
          "removed": false
        }
      ],
      "logsBloom": "0x00000000000000000000000000000000000000000000000000000000000000000008000000000000000000000000000020000000000400000000000000000000000000000000000000000000000000000000000000000000000000000000000000000000000000080000000000000000000000000000000000000000000000000000000400000000000000000000000000000000000000000000000000000000000000000000000000000000000000000000000000000000000000080080000000000000000000000000000000000000000000000000000000000000000000000000000000800000000000000000000000000000000000000000000000000001",
      "type": "0x2",
      "transactionHash": "0xa3234653063284b9d63c9b264d616d5b15f59f1444858bcad7af51d68943c5e6",
      "transactionIndex": "0x6",
      "blockHash": "0xf7bb206c5b27110d2a34d7ee2e69d6d43e00e5a6625151a2620a50678cfed5af",
      "blockNumber": "0x1a07a08",
      "gasUsed": "0x13730",
      "effectiveGasPrice": "0xba43b7401",
      "blobGasUsed": "0x64",
      "from": "0xc4cf543d4b8e94b3b454a233720252753b5d301f",
      "to": "0x91f8763b119ca7ec990eccd0db6a19ca13cafdda",
      "contractAddress": null,
      "daFootprintGasScalar": "0x1",
      "l1BaseFeeScalar": "0x0",
      "l1BlobBaseFee": "0xc73df21",
      "l1BlobBaseFeeScalar": "0x0",
      "l1Fee": "0x0",
      "l1GasPrice": "0xd03ec2a3",
      "l1GasUsed": "0x640"
    },
    {
      "status": "0x1",
      "cumulativeGasUsed": "0xa4954",
      "logs": [
        {
          "address": "0x91f8763b119ca7ec990eccd0db6a19ca13cafdda",
          "topics": [
            "0xcf1703a582c2d33aca5304d8715a8032f0db94e24a996a016453b343ea02d26b",
            "0x0000000000000000000000000000000000000000000000000000000000000007"
          ],
          "data": "0x0000000000000000000000000000000000000000000000000000000000000060000000000000000000000000000000000000000000000000000000006a2adb80000000000000000000000000000000000000000000000000000000000000000000000000000000000000000000000000000000000000000000000000000000204d6f726f63636f20746f20526561636820517561727465722d46696e616c733f",
          "blockHash": "0xf7bb206c5b27110d2a34d7ee2e69d6d43e00e5a6625151a2620a50678cfed5af",
          "blockNumber": "0x1a07a08",
          "blockTimestamp": "0x6a21779c",
          "transactionHash": "0xfd08353973e67d6bb92f294fa5ebda9fd7b45e42e60338cb31aa609f16fe40ca",
          "transactionIndex": "0x7",
          "logIndex": "0x6",
          "removed": false
        }
      ],
      "logsBloom": "0x00000000000000000000000000000000000000000000000000000000000000000008000000000000000000000000000020001000000000000000000000000000000020000000000000000000000000000000000000000000000000000000000000000000000000080000000000000000000000000000000000000000000000000000000000000000000000000000000000000000000000000000000000000000000000000000000000000000000000000000000000000000000000000080000000000000000000000000000000000000000000000000000000000100000000000000000000800000000000000000000000000000000000000000000000000001",
      "type": "0x2",
      "transactionHash": "0xfd08353973e67d6bb92f294fa5ebda9fd7b45e42e60338cb31aa609f16fe40ca",
      "transactionIndex": "0x7",
      "blockHash": "0xf7bb206c5b27110d2a34d7ee2e69d6d43e00e5a6625151a2620a50678cfed5af",
      "blockNumber": "0x1a07a08",
      "gasUsed": "0x18e63",
      "effectiveGasPrice": "0xba43b7401",
      "blobGasUsed": "0x67",
      "from": "0xc4cf543d4b8e94b3b454a233720252753b5d301f",
      "to": "0x91f8763b119ca7ec990eccd0db6a19ca13cafdda",
      "contractAddress": null,
      "daFootprintGasScalar": "0x1",
      "l1BaseFeeScalar": "0x0",
      "l1BlobBaseFee": "0xc73df21",
      "l1BlobBaseFeeScalar": "0x0",
      "l1Fee": "0x0",
      "l1GasPrice": "0xd03ec2a3",
      "l1GasUsed": "0x67c"
    },
    {
      "status": "0x1",
      "cumulativeGasUsed": "0xb809c",
      "logs": [
        {
          "address": "0x91f8763b119ca7ec990eccd0db6a19ca13cafdda",
          "topics": [
            "0xcf1703a582c2d33aca5304d8715a8032f0db94e24a996a016453b343ea02d26b",
            "0x0000000000000000000000000000000000000000000000000000000000000008"
          ],
          "data": "0x0000000000000000000000000000000000000000000000000000000000000060000000000000000000000000000000000000000000000000000000006a669f800000000000000000000000000000000000000000000000000000000000000000000000000000000000000000000000000000000000000000000000000000001b46696e616c204d61746368204f76657220322e3520476f616c733f0000000000",
          "blockHash": "0xf7bb206c5b27110d2a34d7ee2e69d6d43e00e5a6625151a2620a50678cfed5af",
          "blockNumber": "0x1a07a08",
          "blockTimestamp": "0x6a21779c",
          "transactionHash": "0xfbeee8b7d05a8fb1405bbdb1a1ed417419bcfe5b78fd75cc11de4d2144d2745c",
          "transactionIndex": "0x8",
          "logIndex": "0x7",
          "removed": false
        }
      ],
      "logsBloom": "0x00000000000000000000000000000000000000000000000000000000000000000008000000000000000000000000000020000000000080000000000000000000000000000000000000000000000000000000000000000000000000000000000000000000000000080000000000000000000000000000000000000000000000000080000000000000000000000000000000000000000000000000000000000000000000000000000000000000000000000000000000000000000000000080000040000000000000000000000000000000000000000000000000000000000000000000000000800000000000000000000000000000000000000000000000000001",
      "type": "0x2",
      "transactionHash": "0xfbeee8b7d05a8fb1405bbdb1a1ed417419bcfe5b78fd75cc11de4d2144d2745c",
      "transactionIndex": "0x8",
      "blockHash": "0xf7bb206c5b27110d2a34d7ee2e69d6d43e00e5a6625151a2620a50678cfed5af",
      "blockNumber": "0x1a07a08",
      "gasUsed": "0x13748",
      "effectiveGasPrice": "0xba43b7401",
      "blobGasUsed": "0x65",
      "from": "0xc4cf543d4b8e94b3b454a233720252753b5d301f",
      "to": "0x91f8763b119ca7ec990eccd0db6a19ca13cafdda",
      "contractAddress": null,
      "daFootprintGasScalar": "0x1",
      "l1BaseFeeScalar": "0x0",
      "l1BlobBaseFee": "0xc73df21",
      "l1BlobBaseFeeScalar": "0x0",
      "l1Fee": "0x0",
      "l1GasPrice": "0xd03ec2a3",
      "l1GasUsed": "0x654"
    },
    {
      "status": "0x1",
      "cumulativeGasUsed": "0xdb4e5",
      "logs": [
        {
          "address": "0x91f8763b119ca7ec990eccd0db6a19ca13cafdda",
          "topics": [
            "0xcf1703a582c2d33aca5304d8715a8032f0db94e24a996a016453b343ea02d26b",
            "0x0000000000000000000000000000000000000000000000000000000000000009"
          ],
          "data": "0x0000000000000000000000000000000000000000000000000000000000000060000000000000000000000000000000000000000000000000000000006a2b13c000000000000000000000000000000000000000000000000000000000000000010000000000000000000000000000000000000000000000000000000000000022417267656e74696e6120746f20626561742043616e616461202847726f7570204129000000000000000000000000000000000000000000000000000000000000",
          "blockHash": "0xf7bb206c5b27110d2a34d7ee2e69d6d43e00e5a6625151a2620a50678cfed5af",
          "blockNumber": "0x1a07a08",
          "blockTimestamp": "0x6a21779c",
          "transactionHash": "0x71bda3328c04b15459bfe2418550d0aa056dd2d03d81fe7d8adfc03c2015acc9",
          "transactionIndex": "0x9",
          "logIndex": "0x8",
          "removed": false
        }
      ],
      "logsBloom": "0x00000000000000000000000000000000000000000000000000000000000000000008000000000000000000000000000020000000000000000000000000200000000000000000000000000000000000000000000000000000000000000000000000000000000000080000000000000000000000000000000000000000000000000000000000000000000000000000000000001000000000000000000000000000000000000000000000000000000000000000000000000000000000000080000000000000000000000000000000000000000000000000000000000000000000000000000000800000000000000000000000000000000000000000000000800001",
      "type": "0x2",
      "transactionHash": "0x71bda3328c04b15459bfe2418550d0aa056dd2d03d81fe7d8adfc03c2015acc9",
      "transactionIndex": "0x9",
      "blockHash": "0xf7bb206c5b27110d2a34d7ee2e69d6d43e00e5a6625151a2620a50678cfed5af",
      "blockNumber": "0x1a07a08",
      "gasUsed": "0x23449",
      "effectiveGasPrice": "0xba43b7401",
      "blobGasUsed": "0x73",
      "from": "0xc4cf543d4b8e94b3b454a233720252753b5d301f",
      "to": "0x91f8763b119ca7ec990eccd0db6a19ca13cafdda",
      "contractAddress": null,
      "daFootprintGasScalar": "0x1",
      "l1BaseFeeScalar": "0x0",
      "l1BlobBaseFee": "0xc73df21",
      "l1BlobBaseFeeScalar": "0x0",
      "l1Fee": "0x0",
      "l1GasPrice": "0xd03ec2a3",
      "l1GasUsed": "0x738"
    },
    {
      "status": "0x1",
      "cumulativeGasUsed": "0xfe946",
      "logs": [
        {
          "address": "0x91f8763b119ca7ec990eccd0db6a19ca13cafdda",
          "topics": [
            "0xcf1703a582c2d33aca5304d8715a8032f0db94e24a996a016453b343ea02d26b",
            "0x000000000000000000000000000000000000000000000000000000000000000a"
          ],
          "data": "0x0000000000000000000000000000000000000000000000000000000000000060000000000000000000000000000000000000000000000000000000006a2db6c000000000000000000000000000000000000000000000000000000000000000010000000000000000000000000000000000000000000000000000000000000024506f72747567616c20746f206265617420417267656e74696e61202847726f757020412900000000000000000000000000000000000000000000000000000000",
          "blockHash": "0xf7bb206c5b27110d2a34d7ee2e69d6d43e00e5a6625151a2620a50678cfed5af",
          "blockNumber": "0x1a07a08",
          "blockTimestamp": "0x6a21779c",
          "transactionHash": "0xd67416531c4a5271e8ac884b6e03f2afec41b2544e326d2f1da7786e673003ee",
          "transactionIndex": "0xa",
          "logIndex": "0x9",
          "removed": false
        }
      ],
      "logsBloom": "0x00000000000000000000000000000000000000000000000000000000000000000008000000000000000000000000000020000000040000000020000000000000000000000000000000000000000000000000000000000000000000000000000000000000000000080000000000000000000000000000000000000000000000000000000000000000010000000000000000000000000000000000000000000000000000000000000000000000000000000000000000000000000000000080000000000000000000000000000000000000000000000000000000000000000000000000000000800000000000000000000000000000000000000000000000000001",
      "type": "0x2",
      "transactionHash": "0xd67416531c4a5271e8ac884b6e03f2afec41b2544e326d2f1da7786e673003ee",
      "transactionIndex": "0xa",
      "blockHash": "0xf7bb206c5b27110d2a34d7ee2e69d6d43e00e5a6625151a2620a50678cfed5af",
      "blockNumber": "0x1a07a08",
      "gasUsed": "0x23461",
      "effectiveGasPrice": "0xba43b7401",
      "blobGasUsed": "0x73",
      "from": "0xc4cf543d4b8e94b3b454a233720252753b5d301f",
      "to": "0x91f8763b119ca7ec990eccd0db6a19ca13cafdda",
      "contractAddress": null,
      "daFootprintGasScalar": "0x1",
      "l1BaseFeeScalar": "0x0",
      "l1BlobBaseFee": "0xc73df21",
      "l1BlobBaseFeeScalar": "0x0",
      "l1Fee": "0x0",
      "l1GasPrice": "0xd03ec2a3",
      "l1GasUsed": "0x738"
    },
    {
      "status": "0x1",
      "cumulativeGasUsed": "0x121d83",
      "logs": [
        {
          "address": "0x91f8763b119ca7ec990eccd0db6a19ca13cafdda",
          "topics": [
            "0xcf1703a582c2d33aca5304d8715a8032f0db94e24a996a016453b343ea02d26b",
            "0x000000000000000000000000000000000000000000000000000000000000000b"
          ],
          "data": "0x0000000000000000000000000000000000000000000000000000000000000060000000000000000000000000000000000000000000000000000000006a3059c00000000000000000000000000000000000000000000000000000000000000001000000000000000000000000000000000000000000000000000000000000002143616e61646120746f206265617420506f72747567616c202847726f757020412900000000000000000000000000000000000000000000000000000000000000",
          "blockHash": "0xf7bb206c5b27110d2a34d7ee2e69d6d43e00e5a6625151a2620a50678cfed5af",
          "blockNumber": "0x1a07a08",
          "blockTimestamp": "0x6a21779c",
          "transactionHash": "0x1e90931a209150f5fe426bddb27e52ecd2bcc70abe8d9266560d8e78a8d63a8a",
          "transactionIndex": "0xb",
          "logIndex": "0xa",
          "removed": false
        }
      ],
      "logsBloom": "0x00000000000000000000004000000000000000000000000000000000000000000008000000000000000000000000000020000000000000000000000000000000000000000000000000000000000000000000000000000000000000000000000000000000000000080000000000000000000000000000000000000000000000000000000000000000000000000000000000000000000000000000000000000000000000000000000000000000000000000000000000000000000000000080000000000000000000000000000000000000002000000000000000000000000000000000000000800000000000000000000000000000000000040000000000000001",
      "type": "0x2",
      "transactionHash": "0x1e90931a209150f5fe426bddb27e52ecd2bcc70abe8d9266560d8e78a8d63a8a",
      "transactionIndex": "0xb",
      "blockHash": "0xf7bb206c5b27110d2a34d7ee2e69d6d43e00e5a6625151a2620a50678cfed5af",
      "blockNumber": "0x1a07a08",
      "gasUsed": "0x2343d",
      "effectiveGasPrice": "0xba43b7401",
      "blobGasUsed": "0x72",
      "from": "0xc4cf543d4b8e94b3b454a233720252753b5d301f",
      "to": "0x91f8763b119ca7ec990eccd0db6a19ca13cafdda",
      "contractAddress": null,
      "daFootprintGasScalar": "0x1",
      "l1BaseFeeScalar": "0x0",
      "l1BlobBaseFee": "0xc73df21",
      "l1BlobBaseFeeScalar": "0x0",
      "l1Fee": "0x0",
      "l1GasPrice": "0xd03ec2a3",
      "l1GasUsed": "0x72a"
    },
    {
      "status": "0x1",
      "cumulativeGasUsed": "0x13a2c3",
      "logs": [
        {
          "address": "0x91f8763b119ca7ec990eccd0db6a19ca13cafdda",
          "topics": [
            "0xcf1703a582c2d33aca5304d8715a8032f0db94e24a996a016453b343ea02d26b",
            "0x000000000000000000000000000000000000000000000000000000000000000c"
          ],
          "data": "0x0000000000000000000000000000000000000000000000000000000000000060000000000000000000000000000000000000000000000000000000006a2c65400000000000000000000000000000000000000000000000000000000000000001000000000000000000000000000000000000000000000000000000000000001f4672616e636520746f2062656174204d657869636f202847726f757020422900",
          "blockHash": "0xf7bb206c5b27110d2a34d7ee2e69d6d43e00e5a6625151a2620a50678cfed5af",
          "blockNumber": "0x1a07a08",
          "blockTimestamp": "0x6a21779c",
          "transactionHash": "0xeccc7d55d1af75090dea8de4b24b5ed6d98159e657bc116e94e7d6c1fbb1464f",
          "transactionIndex": "0xc",
          "logIndex": "0xb",
          "removed": false
        }
      ],
      "logsBloom": "0x00000000000000000000000000000000000002000000000000000000000000000008000000000200000000000000000020000000000000000000000000000000000000000000000000000000000000000000000000000000000000000000000000000000000000080000000000000000000000000000000000000000000000000000000000000000000000000000000000000000000000000000000000000000000000000000000000000000000000000000000000000000000000000080000000000000000000000000000000000000000000000000000000000000000000200000000000800000000000000000000000000000000000000000000000000001",
      "type": "0x2",
      "transactionHash": "0xeccc7d55d1af75090dea8de4b24b5ed6d98159e657bc116e94e7d6c1fbb1464f",
      "transactionIndex": "0xc",
      "blockHash": "0xf7bb206c5b27110d2a34d7ee2e69d6d43e00e5a6625151a2620a50678cfed5af",
      "blockNumber": "0x1a07a08",
      "gasUsed": "0x18540",
      "effectiveGasPrice": "0xba43b7401",
      "blobGasUsed": "0x6c",
      "from": "0xc4cf543d4b8e94b3b454a233720252753b5d301f",
      "to": "0x91f8763b119ca7ec990eccd0db6a19ca13cafdda",
      "contractAddress": null,
      "daFootprintGasScalar": "0x1",
      "l1BaseFeeScalar": "0x0",
      "l1BlobBaseFee": "0xc73df21",
      "l1BlobBaseFeeScalar": "0x0",
      "l1Fee": "0x0",
      "l1GasPrice": "0xd03ec2a3",
      "l1GasUsed": "0x6cd"
    },
    {
      "status": "0x1",
      "cumulativeGasUsed": "0x157eee",
      "logs": [
        {
          "address": "0x91f8763b119ca7ec990eccd0db6a19ca13cafdda",
          "topics": [
            "0xcf1703a582c2d33aca5304d8715a8032f0db94e24a996a016453b343ea02d26b",
            "0x000000000000000000000000000000000000000000000000000000000000000d"
          ],
          "data": "0x0000000000000000000000000000000000000000000000000000000000000060000000000000000000000000000000000000000000000000000000006a2f0840000000000000000000000000000000000000000000000000000000000000000100000000000000000000000000000000000000000000000000000000000000204d657869636f20746f2062656174204765726d616e79202847726f7570204229",
          "blockHash": "0xf7bb206c5b27110d2a34d7ee2e69d6d43e00e5a6625151a2620a50678cfed5af",
          "blockNumber": "0x1a07a08",
          "blockTimestamp": "0x6a21779c",
          "transactionHash": "0x2c312418e9694961131ade5fafebacdf9e4c8bfbaeeb6e934fdf0c724e63cf37",
          "transactionIndex": "0xd",
          "logIndex": "0xc",
          "removed": false
        }
      ],
      "logsBloom": "0x00000000000000000040000000000000000000000000000000000000000000000008000000000000000000000000000020000000000000000000000000000000000000000000000000000000000000000002000000000000000000000000000000000000000000080000000000000000000000000000000000000000000000000000000000000000000000000000000000000000000000000000000000000000000000000000000000000000000000000000000000000000000000000080000000000000000000000000000000000000000000000000000000000000000000020000000000800000000000000000000000000000000000000000000000000001",
      "type": "0x2",
      "transactionHash": "0x2c312418e9694961131ade5fafebacdf9e4c8bfbaeeb6e934fdf0c724e63cf37",
      "transactionIndex": "0xd",
      "blockHash": "0xf7bb206c5b27110d2a34d7ee2e69d6d43e00e5a6625151a2620a50678cfed5af",
      "blockNumber": "0x1a07a08",
      "gasUsed": "0x1dc2b",
      "effectiveGasPrice": "0xba43b7401",
      "blobGasUsed": "0x6c",
      "from": "0xc4cf543d4b8e94b3b454a233720252753b5d301f",
      "to": "0x91f8763b119ca7ec990eccd0db6a19ca13cafdda",
      "contractAddress": null,
      "daFootprintGasScalar": "0x1",
      "l1BaseFeeScalar": "0x0",
      "l1BlobBaseFee": "0xc73df21",
      "l1BlobBaseFeeScalar": "0x0",
      "l1Fee": "0x0",
      "l1GasPrice": "0xd03ec2a3",
      "l1GasUsed": "0x6cd"
    },
    {
      "status": "0x1",
      "cumulativeGasUsed": "0x175b19",
      "logs": [
        {
          "address": "0x91f8763b119ca7ec990eccd0db6a19ca13cafdda",
          "topics": [
            "0xcf1703a582c2d33aca5304d8715a8032f0db94e24a996a016453b343ea02d26b",
            "0x000000000000000000000000000000000000000000000000000000000000000e"
          ],
          "data": "0x0000000000000000000000000000000000000000000000000000000000000060000000000000000000000000000000000000000000000000000000006a31ab40000000000000000000000000000000000000000000000000000000000000000100000000000000000000000000000000000000000000000000000000000000204765726d616e7920746f2062656174204672616e6365202847726f7570204229",
          "blockHash": "0xf7bb206c5b27110d2a34d7ee2e69d6d43e00e5a6625151a2620a50678cfed5af",
          "blockNumber": "0x1a07a08",
          "blockTimestamp": "0x6a21779c",
          "transactionHash": "0x5c977ef2f7c5cdd4d3cc83f0665e4b2a7fc963d9be54ece57659935fac5b3c0e",
          "transactionIndex": "0xe",
          "logIndex": "0xd",
          "removed": false
        }
      ],
      "logsBloom": "0x00000000000000000000000000000000000000000000000000000000000000000008000000000000000000000000000020000000000000000000000000000000000000000000000800000000000000000000000000000000000000000000000000000000000000080000000000000000000000000000000000000000000000000000000000000000000000000000000008000000000000000000000000000000000000000000000000000000000000000000000000000020000000000080000000000000000000000000000000000000000000000000000000000000000000000000000000800000000000000000000000000000000000000000000000000001",
      "type": "0x2",
      "transactionHash": "0x5c977ef2f7c5cdd4d3cc83f0665e4b2a7fc963d9be54ece57659935fac5b3c0e",
      "transactionIndex": "0xe",
      "blockHash": "0xf7bb206c5b27110d2a34d7ee2e69d6d43e00e5a6625151a2620a50678cfed5af",
      "blockNumber": "0x1a07a08",
      "gasUsed": "0x1dc2b",
      "effectiveGasPrice": "0xba43b7401",
      "blobGasUsed": "0x6c",
      "from": "0xc4cf543d4b8e94b3b454a233720252753b5d301f",
      "to": "0x91f8763b119ca7ec990eccd0db6a19ca13cafdda",
      "contractAddress": null,
      "daFootprintGasScalar": "0x1",
      "l1BaseFeeScalar": "0x0",
      "l1BlobBaseFee": "0xc73df21",
      "l1BlobBaseFeeScalar": "0x0",
      "l1Fee": "0x0",
      "l1GasPrice": "0xd03ec2a3",
      "l1GasUsed": "0x6cd"
    },
    {
      "status": "0x1",
      "cumulativeGasUsed": "0x193744",
      "logs": [
        {
          "address": "0x91f8763b119ca7ec990eccd0db6a19ca13cafdda",
          "topics": [
            "0xcf1703a582c2d33aca5304d8715a8032f0db94e24a996a016453b343ea02d26b",
            "0x000000000000000000000000000000000000000000000000000000000000000f"
          ],
          "data": "0x0000000000000000000000000000000000000000000000000000000000000060000000000000000000000000000000000000000000000000000000006a2c6540000000000000000000000000000000000000000000000000000000000000000100000000000000000000000000000000000000000000000000000000000000204272617a696c20746f2062656174204d6f726f63636f202847726f7570204329",
          "blockHash": "0xf7bb206c5b27110d2a34d7ee2e69d6d43e00e5a6625151a2620a50678cfed5af",
          "blockNumber": "0x1a07a08",
          "blockTimestamp": "0x6a21779c",
          "transactionHash": "0x3c8eedfe8b6e5da408ad70dde6b880a68d3a8c4c6ff350d667e889f453920f85",
          "transactionIndex": "0xf",
          "logIndex": "0xe",
          "removed": false
        }
      ],
      "logsBloom": "0x00000000000000000000000000000000000000000000000000000000000000000008000000000000000000000000000020000000000000000000000000000000000000000000000000000000000000000000000000000000000000000002000000000000000000080000000000000000000000000000000000000000000000000000000000000800000000000000000000000000000000000000000000000000000000000000000000000000000000000000000000000000000000000080000000000000000000000000000000000000000000000000000000000000000000000000000200800000000000000000000000000000000000000000000000000001",
      "type": "0x2",
      "transactionHash": "0x3c8eedfe8b6e5da408ad70dde6b880a68d3a8c4c6ff350d667e889f453920f85",
      "transactionIndex": "0xf",
      "blockHash": "0xf7bb206c5b27110d2a34d7ee2e69d6d43e00e5a6625151a2620a50678cfed5af",
      "blockNumber": "0x1a07a08",
      "gasUsed": "0x1dc2b",
      "effectiveGasPrice": "0xba43b7401",
      "blobGasUsed": "0x6c",
      "from": "0xc4cf543d4b8e94b3b454a233720252753b5d301f",
      "to": "0x91f8763b119ca7ec990eccd0db6a19ca13cafdda",
      "contractAddress": null,
      "daFootprintGasScalar": "0x1",
      "l1BaseFeeScalar": "0x0",
      "l1BlobBaseFee": "0xc73df21",
      "l1BlobBaseFeeScalar": "0x0",
      "l1Fee": "0x0",
      "l1GasPrice": "0xd03ec2a3",
      "l1GasUsed": "0x6cd"
    },
    {
      "status": "0x1",
      "cumulativeGasUsed": "0x1b6b8d",
      "logs": [
        {
          "address": "0x91f8763b119ca7ec990eccd0db6a19ca13cafdda",
          "topics": [
            "0xcf1703a582c2d33aca5304d8715a8032f0db94e24a996a016453b343ea02d26b",
            "0x0000000000000000000000000000000000000000000000000000000000000010"
          ],
          "data": "0x0000000000000000000000000000000000000000000000000000000000000060000000000000000000000000000000000000000000000000000000006a2f0840000000000000000000000000000000000000000000000000000000000000000100000000000000000000000000000000000000000000000000000000000000224d6f726f63636f20746f206265617420436f6c6f6d626961202847726f7570204329000000000000000000000000000000000000000000000000000000000000",
          "blockHash": "0xf7bb206c5b27110d2a34d7ee2e69d6d43e00e5a6625151a2620a50678cfed5af",
          "blockNumber": "0x1a07a08",
          "blockTimestamp": "0x6a21779c",
          "transactionHash": "0xaa5cf91c90592df3844d0cca25bdd9b4a6b6e0b24af48e2ed95dd461939d7619",
          "transactionIndex": "0x10",
          "logIndex": "0xf",
          "removed": false
        }
      ],
      "logsBloom": "0x00000000100000000000000000000000000000000000000000000000000000000008000000000000000000000000000020000000000000000000000000000000000000000000000000000000000000000000000000000000000000000000000000000000000000080000000000000000000000000000000000000000040000000000000000000000000000000000000000000100000000000000000000000000000000000000000000000000000000000000000000000000000000000080000000000000000000000000000000000000000000000000000000000000000000000000000000800000000000000000000000000000000000000000000000000001",
      "type": "0x2",
      "transactionHash": "0xaa5cf91c90592df3844d0cca25bdd9b4a6b6e0b24af48e2ed95dd461939d7619",
      "transactionIndex": "0x10",
      "blockHash": "0xf7bb206c5b27110d2a34d7ee2e69d6d43e00e5a6625151a2620a50678cfed5af",
      "blockNumber": "0x1a07a08",
      "gasUsed": "0x23449",
      "effectiveGasPrice": "0xba43b7401",
      "blobGasUsed": "0x73",
      "from": "0xc4cf543d4b8e94b3b454a233720252753b5d301f",
      "to": "0x91f8763b119ca7ec990eccd0db6a19ca13cafdda",
      "contractAddress": null,
      "daFootprintGasScalar": "0x1",
      "l1BaseFeeScalar": "0x0",
      "l1BlobBaseFee": "0xc73df21",
      "l1BlobBaseFeeScalar": "0x0",
      "l1Fee": "0x0",
      "l1GasPrice": "0xd03ec2a3",
      "l1GasUsed": "0x738"
    },
    {
      "status": "0x1",
      "cumulativeGasUsed": "0x1d9fca",
      "logs": [
        {
          "address": "0x91f8763b119ca7ec990eccd0db6a19ca13cafdda",
          "topics": [
            "0xcf1703a582c2d33aca5304d8715a8032f0db94e24a996a016453b343ea02d26b",
            "0x0000000000000000000000000000000000000000000000000000000000000011"
          ],
          "data": "0x0000000000000000000000000000000000000000000000000000000000000060000000000000000000000000000000000000000000000000000000006a31ab4000000000000000000000000000000000000000000000000000000000000000010000000000000000000000000000000000000000000000000000000000000021436f6c6f6d62696120746f2062656174204272617a696c202847726f757020432900000000000000000000000000000000000000000000000000000000000000",
          "blockHash": "0xf7bb206c5b27110d2a34d7ee2e69d6d43e00e5a6625151a2620a50678cfed5af",
          "blockNumber": "0x1a07a08",
          "blockTimestamp": "0x6a21779c",
          "transactionHash": "0x511e1f3c81f5a988c1e83a656c49558af69f81ccc6790f1417d92091d94472e1",
          "transactionIndex": "0x11",
          "logIndex": "0x10",
          "removed": false
        }
      ],
      "logsBloom": "0x00000000000000000000000000000000000000000000000000000000000000000008000000000000000000000000000020000000000000000000000000000000000000000000000000000000000000000000000000000000000000000000000000000000000000080000000000000000000000004000000000000000000000000000000000000000000000000000000000000000000000000000000000000000000000000000000000000000000000000000000000000000000000000480000000001000000000000000000000000000000000000000000000000000000000000000000000800000000000000000000000000000000000000000000000000001",
      "type": "0x2",
      "transactionHash": "0x511e1f3c81f5a988c1e83a656c49558af69f81ccc6790f1417d92091d94472e1",
      "transactionIndex": "0x11",
      "blockHash": "0xf7bb206c5b27110d2a34d7ee2e69d6d43e00e5a6625151a2620a50678cfed5af",
      "blockNumber": "0x1a07a08",
      "gasUsed": "0x2343d",
      "effectiveGasPrice": "0xba43b7401",
      "blobGasUsed": "0x72",
      "from": "0xc4cf543d4b8e94b3b454a233720252753b5d301f",
      "to": "0x91f8763b119ca7ec990eccd0db6a19ca13cafdda",
      "contractAddress": null,
      "daFootprintGasScalar": "0x1",
      "l1BaseFeeScalar": "0x0",
      "l1BlobBaseFee": "0xc73df21",
      "l1BlobBaseFeeScalar": "0x0",
      "l1Fee": "0x0",
      "l1GasPrice": "0xd03ec2a3",
      "l1GasUsed": "0x72a"
    },
    {
      "status": "0x1",
      "cumulativeGasUsed": "0x1f24f2",
      "logs": [
        {
          "address": "0x91f8763b119ca7ec990eccd0db6a19ca13cafdda",
          "topics": [
            "0xcf1703a582c2d33aca5304d8715a8032f0db94e24a996a016453b343ea02d26b",
            "0x0000000000000000000000000000000000000000000000000000000000000012"
          ],
          "data": "0x0000000000000000000000000000000000000000000000000000000000000060000000000000000000000000000000000000000000000000000000006a2db6c00000000000000000000000000000000000000000000000000000000000000001000000000000000000000000000000000000000000000000000000000000001d456e676c616e6420746f206265617420555341202847726f7570204429000000",
          "blockHash": "0xf7bb206c5b27110d2a34d7ee2e69d6d43e00e5a6625151a2620a50678cfed5af",
          "blockNumber": "0x1a07a08",
          "blockTimestamp": "0x6a21779c",
          "transactionHash": "0x4e242d25b0aac9f2bb0ea99ae01ceef0414d0b131091e45da13f2890131df8fb",
          "transactionIndex": "0x12",
          "logIndex": "0x11",
          "removed": false
        }
      ],
      "logsBloom": "0x00000000000000000000000000000000000000000000000000000000000000000008000000000000000000000000000020000000000000000000000000000000000000000000000000000000000000000000000000000000000000000000000000000000000000080000000000000000000000000000000000000000000000000000000000000000000000000000040000000000000000000000000000000000000000000000000000000000000000000000000000000040000000000080000000000000000000000400000000000000000000000000000000000000000000000000000000800000000000000000000000000000000000000000000000000001",
      "type": "0x2",
      "transactionHash": "0x4e242d25b0aac9f2bb0ea99ae01ceef0414d0b131091e45da13f2890131df8fb",
      "transactionIndex": "0x12",
      "blockHash": "0xf7bb206c5b27110d2a34d7ee2e69d6d43e00e5a6625151a2620a50678cfed5af",
      "blockNumber": "0x1a07a08",
      "gasUsed": "0x18528",
      "effectiveGasPrice": "0xba43b7401",
      "blobGasUsed": "0x6b",
      "from": "0xc4cf543d4b8e94b3b454a233720252753b5d301f",
      "to": "0x91f8763b119ca7ec990eccd0db6a19ca13cafdda",
      "contractAddress": null,
      "daFootprintGasScalar": "0x1",
      "l1BaseFeeScalar": "0x0",
      "l1BlobBaseFee": "0xc73df21",
      "l1BlobBaseFeeScalar": "0x0",
      "l1Fee": "0x0",
      "l1GasPrice": "0xd03ec2a3",
      "l1GasUsed": "0x6bf"
    },
    {
      "status": "0x1",
      "cumulativeGasUsed": "0x21592f",
      "logs": [
        {
          "address": "0x91f8763b119ca7ec990eccd0db6a19ca13cafdda",
          "topics": [
            "0xcf1703a582c2d33aca5304d8715a8032f0db94e24a996a016453b343ea02d26b",
            "0x0000000000000000000000000000000000000000000000000000000000000013"
          ],
          "data": "0x0000000000000000000000000000000000000000000000000000000000000060000000000000000000000000000000000000000000000000000000006a3059c00000000000000000000000000000000000000000000000000000000000000001000000000000000000000000000000000000000000000000000000000000002155534120746f2062656174204e65746865726c616e6473202847726f757020442900000000000000000000000000000000000000000000000000000000000000",
          "blockHash": "0xf7bb206c5b27110d2a34d7ee2e69d6d43e00e5a6625151a2620a50678cfed5af",
          "blockNumber": "0x1a07a08",
          "blockTimestamp": "0x6a21779c",
          "transactionHash": "0xc5c47550bf7973f8fcfe6adb422bc02178d9871ce587a9258aea14a1696af467",
          "transactionIndex": "0x13",
          "logIndex": "0x12",
          "removed": false
        }
      ],
      "logsBloom": "0x20000000000000000000000000800000000000000000000000000000000000000008000040000000000000000000000020000000000000000000000000000000000000000000000000000000000000000000000000000000000000000000000000000000000000080000000000000000000000000000000000000000000000000000000000000000000000000000000000000000000000000000000000000000000000000000000000000000000000000000000000000000000000000080000000000000000000000000000000000000000000000000000000000000000000000000000000800000000000000000000000000000000000000000000000000001",
      "type": "0x2",
      "transactionHash": "0xc5c47550bf7973f8fcfe6adb422bc02178d9871ce587a9258aea14a1696af467",
      "transactionIndex": "0x13",
      "blockHash": "0xf7bb206c5b27110d2a34d7ee2e69d6d43e00e5a6625151a2620a50678cfed5af",
      "blockNumber": "0x1a07a08",
      "gasUsed": "0x2343d",
      "effectiveGasPrice": "0xba43b7401",
      "blobGasUsed": "0x72",
      "from": "0xc4cf543d4b8e94b3b454a233720252753b5d301f",
      "to": "0x91f8763b119ca7ec990eccd0db6a19ca13cafdda",
      "contractAddress": null,
      "daFootprintGasScalar": "0x1",
      "l1BaseFeeScalar": "0x0",
      "l1BlobBaseFee": "0xc73df21",
      "l1BlobBaseFeeScalar": "0x0",
      "l1Fee": "0x0",
      "l1GasPrice": "0xd03ec2a3",
      "l1GasUsed": "0x72a"
    },
    {
      "status": "0x1",
      "cumulativeGasUsed": "0x238d9c",
      "logs": [
        {
          "address": "0x91f8763b119ca7ec990eccd0db6a19ca13cafdda",
          "topics": [
            "0xcf1703a582c2d33aca5304d8715a8032f0db94e24a996a016453b343ea02d26b",
            "0x0000000000000000000000000000000000000000000000000000000000000014"
          ],
          "data": "0x0000000000000000000000000000000000000000000000000000000000000060000000000000000000000000000000000000000000000000000000006a32fcc0000000000000000000000000000000000000000000000000000000000000000100000000000000000000000000000000000000000000000000000000000000254e65746865726c616e647320746f206265617420456e676c616e64202847726f7570204429000000000000000000000000000000000000000000000000000000",
          "blockHash": "0xf7bb206c5b27110d2a34d7ee2e69d6d43e00e5a6625151a2620a50678cfed5af",
          "blockNumber": "0x1a07a08",
          "blockTimestamp": "0x6a21779c",
          "transactionHash": "0xdc4b7b7b7b29cf1e3b130b465f16ec3fc2fdac2209ad6eae4913c5ee82750d37",
          "transactionIndex": "0x14",
          "logIndex": "0x13",
          "removed": false
        }
      ],
      "logsBloom": "0x00000000000000000000000000000000000000000000000000000000000000000008000000000000000000000000000020002000000000000000000000000000000000000000000000000000000000000000000000000000000000000000000000000000000000080000000000000000000000000000000000000000000000000000000000000000000000000000000000000000000400000000000000000000000000000000000020000000000000000000000000000000000000000080000000000000000000000000000000000000000000000000000000000000000000000000000000800000000000000000000000000000000000000000000000000001",
      "type": "0x2",
      "transactionHash": "0xdc4b7b7b7b29cf1e3b130b465f16ec3fc2fdac2209ad6eae4913c5ee82750d37",
      "transactionIndex": "0x14",
      "blockHash": "0xf7bb206c5b27110d2a34d7ee2e69d6d43e00e5a6625151a2620a50678cfed5af",
      "blockNumber": "0x1a07a08",
      "gasUsed": "0x2346d",
      "effectiveGasPrice": "0xba43b7401",
      "blobGasUsed": "0x72",
      "from": "0xc4cf543d4b8e94b3b454a233720252753b5d301f",
      "to": "0x91f8763b119ca7ec990eccd0db6a19ca13cafdda",
      "contractAddress": null,
      "daFootprintGasScalar": "0x1",
      "l1BaseFeeScalar": "0x0",
      "l1BlobBaseFee": "0xc73df21",
      "l1BlobBaseFeeScalar": "0x0",
      "l1Fee": "0x0",
      "l1GasPrice": "0xd03ec2a3",
      "l1GasUsed": "0x72a"
    },
    {
      "status": "0x1",
      "cumulativeGasUsed": "0x2512c4",
      "logs": [
        {
          "address": "0x91f8763b119ca7ec990eccd0db6a19ca13cafdda",
          "topics": [
            "0xcf1703a582c2d33aca5304d8715a8032f0db94e24a996a016453b343ea02d26b",
            "0x0000000000000000000000000000000000000000000000000000000000000015"
          ],
          "data": "0x0000000000000000000000000000000000000000000000000000000000000060000000000000000000000000000000000000000000000000000000006a2db6c00000000000000000000000000000000000000000000000000000000000000001000000000000000000000000000000000000000000000000000000000000001d537061696e20746f2062656174204a6170616e202847726f7570204529000000",
          "blockHash": "0xf7bb206c5b27110d2a34d7ee2e69d6d43e00e5a6625151a2620a50678cfed5af",
          "blockNumber": "0x1a07a08",
          "blockTimestamp": "0x6a21779c",
          "transactionHash": "0xac1ccd49f569e8050b16a2c41aa05755fc27e8d15d9adfa371bfff4279914539",
          "transactionIndex": "0x15",
          "logIndex": "0x14",
          "removed": false
        }
      ],
      "logsBloom": "0x00000000000000000000000000000000000000000000000000000000000000000008000000000000000000000000000020000000000000000000000000000000001000000000000000000000000000000000000000000000000000000000000000000000000000080000000000000000000000000000000000000000000000000000000000000000000000000000000000000000000000000000000000000000000000000000000000000000010000000000000000000000000000000080000000000000000000000000000000000000000000000000000000000000000000002000000000800000000000000000000000000000000000000000000000000001",
      "type": "0x2",
      "transactionHash": "0xac1ccd49f569e8050b16a2c41aa05755fc27e8d15d9adfa371bfff4279914539",
      "transactionIndex": "0x15",
      "blockHash": "0xf7bb206c5b27110d2a34d7ee2e69d6d43e00e5a6625151a2620a50678cfed5af",
      "blockNumber": "0x1a07a08",
      "gasUsed": "0x18528",
      "effectiveGasPrice": "0xba43b7401",
      "blobGasUsed": "0x6b",
      "from": "0xc4cf543d4b8e94b3b454a233720252753b5d301f",
      "to": "0x91f8763b119ca7ec990eccd0db6a19ca13cafdda",
      "contractAddress": null,
      "daFootprintGasScalar": "0x1",
      "l1BaseFeeScalar": "0x0",
      "l1BlobBaseFee": "0xc73df21",
      "l1BlobBaseFeeScalar": "0x0",
      "l1Fee": "0x0",
      "l1GasPrice": "0xd03ec2a3",
      "l1GasUsed": "0x6bf"
    },
    {
      "status": "0x1",
      "cumulativeGasUsed": "0x269804",
      "logs": [
        {
          "address": "0x91f8763b119ca7ec990eccd0db6a19ca13cafdda",
          "topics": [
            "0xcf1703a582c2d33aca5304d8715a8032f0db94e24a996a016453b343ea02d26b",
            "0x0000000000000000000000000000000000000000000000000000000000000016"
          ],
          "data": "0x0000000000000000000000000000000000000000000000000000000000000060000000000000000000000000000000000000000000000000000000006a3059c00000000000000000000000000000000000000000000000000000000000000001000000000000000000000000000000000000000000000000000000000000001f4a6170616e20746f20626561742055727567756179202847726f757020452900",
          "blockHash": "0xf7bb206c5b27110d2a34d7ee2e69d6d43e00e5a6625151a2620a50678cfed5af",
          "blockNumber": "0x1a07a08",
          "blockTimestamp": "0x6a21779c",
          "transactionHash": "0x8acb04bced0abbd9b8ad97cdc95920f4f632b871670a0d838b427165d4c07193",
          "transactionIndex": "0x16",
          "logIndex": "0x15",
          "removed": false
        }
      ],
      "logsBloom": "0x00000000000000000000000000000000000000000000000000000000000000000008000000000000000000000000000020000000000000000000000000000000000000000000000800000000000000000000000000000000000000000000000000000000000000080000000000000000200000000000000000000000000000000000000000000000000000000000000000000000000000000000000000000000000000000000000000000000000000000000000000000000000000000080000000000000000000000000000000000000000000000000000000000000000000000000000000800000000000000000000000000000000000000008000000000001",
      "type": "0x2",
      "transactionHash": "0x8acb04bced0abbd9b8ad97cdc95920f4f632b871670a0d838b427165d4c07193",
      "transactionIndex": "0x16",
      "blockHash": "0xf7bb206c5b27110d2a34d7ee2e69d6d43e00e5a6625151a2620a50678cfed5af",
      "blockNumber": "0x1a07a08",
      "gasUsed": "0x18540",
      "effectiveGasPrice": "0xba43b7401",
      "blobGasUsed": "0x6c",
      "from": "0xc4cf543d4b8e94b3b454a233720252753b5d301f",
      "to": "0x91f8763b119ca7ec990eccd0db6a19ca13cafdda",
      "contractAddress": null,
      "daFootprintGasScalar": "0x1",
      "l1BaseFeeScalar": "0x0",
      "l1BlobBaseFee": "0xc73df21",
      "l1BlobBaseFeeScalar": "0x0",
      "l1Fee": "0x0",
      "l1GasPrice": "0xd03ec2a3",
      "l1GasUsed": "0x6cd"
    },
    {
      "status": "0x1",
      "cumulativeGasUsed": "0x281d44",
      "logs": [
        {
          "address": "0x91f8763b119ca7ec990eccd0db6a19ca13cafdda",
          "topics": [
            "0xcf1703a582c2d33aca5304d8715a8032f0db94e24a996a016453b343ea02d26b",
            "0x0000000000000000000000000000000000000000000000000000000000000017"
          ],
          "data": "0x0000000000000000000000000000000000000000000000000000000000000060000000000000000000000000000000000000000000000000000000006a32fcc00000000000000000000000000000000000000000000000000000000000000001000000000000000000000000000000000000000000000000000000000000001f5572756775617920746f206265617420537061696e202847726f757020452900",
          "blockHash": "0xf7bb206c5b27110d2a34d7ee2e69d6d43e00e5a6625151a2620a50678cfed5af",
          "blockNumber": "0x1a07a08",
          "blockTimestamp": "0x6a21779c",
          "transactionHash": "0x4dda3aa72e3a62f1a49afd3332bf46c881095127fe872dfc387fdaca6009b430",
          "transactionIndex": "0x17",
          "logIndex": "0x16",
          "removed": false
        }
      ],
      "logsBloom": "0x00000000000000000000000000000000000000000000000000000000000000000008000000000000000000000000000020001000000000000000001000000000000000000000000000000000000000000000000000000000000000000000000000000000000000080000000000000000000000000000000000000000000000000000000000000000000000000000000000000000000000000000000000000000000000000000000000000000000000000000000000000000000000000080000000000000000000000000000000000000000000000000000000000000000000000000000000800000000000000000000000000000000000000000000000080001",
      "type": "0x2",
      "transactionHash": "0x4dda3aa72e3a62f1a49afd3332bf46c881095127fe872dfc387fdaca6009b430",
      "transactionIndex": "0x17",
      "blockHash": "0xf7bb206c5b27110d2a34d7ee2e69d6d43e00e5a6625151a2620a50678cfed5af",
      "blockNumber": "0x1a07a08",
      "gasUsed": "0x18540",
      "effectiveGasPrice": "0xba43b7401",
      "blobGasUsed": "0x6c",
      "from": "0xc4cf543d4b8e94b3b454a233720252753b5d301f",
      "to": "0x91f8763b119ca7ec990eccd0db6a19ca13cafdda",
      "contractAddress": null,
      "daFootprintGasScalar": "0x1",
      "l1BaseFeeScalar": "0x0",
      "l1BlobBaseFee": "0xc73df21",
      "l1BlobBaseFeeScalar": "0x0",
      "l1Fee": "0x0",
      "l1GasPrice": "0xd03ec2a3",
      "l1GasUsed": "0x6cd"
    },
    {
      "status": "0x1",
      "cumulativeGasUsed": "0x2a5181",
      "logs": [
        {
          "address": "0x91f8763b119ca7ec990eccd0db6a19ca13cafdda",
          "topics": [
            "0xcf1703a582c2d33aca5304d8715a8032f0db94e24a996a016453b343ea02d26b",
            "0x0000000000000000000000000000000000000000000000000000000000000018"
          ],
          "data": "0x0000000000000000000000000000000000000000000000000000000000000060000000000000000000000000000000000000000000000000000000006a2f08400000000000000000000000000000000000000000000000000000000000000001000000000000000000000000000000000000000000000000000000000000002142656c6769756d20746f20626561742053656e6567616c202847726f757020462900000000000000000000000000000000000000000000000000000000000000",
          "blockHash": "0xf7bb206c5b27110d2a34d7ee2e69d6d43e00e5a6625151a2620a50678cfed5af",
          "blockNumber": "0x1a07a08",
          "blockTimestamp": "0x6a21779c",
          "transactionHash": "0x4636d70bc86b3ebba5e38ad0c2f39eefac53ace5a9eac293578e439d573dff1b",
          "transactionIndex": "0x18",
          "logIndex": "0x17",
          "removed": false
        }
      ],
      "logsBloom": "0x00000000000000000000000000000000000000000000000000000000000000000008000000000000000000000000000020000000000000000000000000000000000000000000000000000000000000000040000000000000000000000000000000000000000000080000000000000000000000000000000000000000000000000000000000000000000000000000000000000000000000000000000000000000000000000000000000000000000000000000000000000000000000000080000000100000000000000000000000000000000000000000000020000000000000000000000000800000000000000000000000000000000000000000000000000001",
      "type": "0x2",
      "transactionHash": "0x4636d70bc86b3ebba5e38ad0c2f39eefac53ace5a9eac293578e439d573dff1b",
      "transactionIndex": "0x18",
      "blockHash": "0xf7bb206c5b27110d2a34d7ee2e69d6d43e00e5a6625151a2620a50678cfed5af",
      "blockNumber": "0x1a07a08",
      "gasUsed": "0x2343d",
      "effectiveGasPrice": "0xba43b7401",
      "blobGasUsed": "0x72",
      "from": "0xc4cf543d4b8e94b3b454a233720252753b5d301f",
      "to": "0x91f8763b119ca7ec990eccd0db6a19ca13cafdda",
      "contractAddress": null,
      "daFootprintGasScalar": "0x1",
      "l1BaseFeeScalar": "0x0",
      "l1BlobBaseFee": "0xc73df21",
      "l1BlobBaseFeeScalar": "0x0",
      "l1Fee": "0x0",
      "l1GasPrice": "0xd03ec2a3",
      "l1GasUsed": "0x72a"
    },
    {
      "status": "0x1",
      "cumulativeGasUsed": "0x2c85be",
      "logs": [
        {
          "address": "0x91f8763b119ca7ec990eccd0db6a19ca13cafdda",
          "topics": [
            "0xcf1703a582c2d33aca5304d8715a8032f0db94e24a996a016453b343ea02d26b",
            "0x0000000000000000000000000000000000000000000000000000000000000019"
          ],
          "data": "0x0000000000000000000000000000000000000000000000000000000000000060000000000000000000000000000000000000000000000000000000006a31ab400000000000000000000000000000000000000000000000000000000000000001000000000000000000000000000000000000000000000000000000000000002153656e6567616c20746f20626561742043726f61746961202847726f757020462900000000000000000000000000000000000000000000000000000000000000",
          "blockHash": "0xf7bb206c5b27110d2a34d7ee2e69d6d43e00e5a6625151a2620a50678cfed5af",
          "blockNumber": "0x1a07a08",
          "blockTimestamp": "0x6a21779c",
          "transactionHash": "0xf0f3f8a2811cd8df23fe613c145b511a8aad99ad6e6f6ad8c25292ee3e93c6c8",
          "transactionIndex": "0x19",
          "logIndex": "0x18",
          "removed": false
        }
      ],
      "logsBloom": "0x00000000000000000000000000000000000000000000000000000000000000000008000000000000000000000000000020000000000000800000000000000000000000000000000000000000000000000000000000000000000000000000000000000000000000080000000000000000000000000000020000000000000000000000000000000000000000000000000000000000000000000000000000000000000000000000000000000000000000000000000000000000000000000080000000000000000000000000000000000000000000000000000000000000000000000000000000800000000000000000000000000000000000000000008000000001",
      "type": "0x2",
      "transactionHash": "0xf0f3f8a2811cd8df23fe613c145b511a8aad99ad6e6f6ad8c25292ee3e93c6c8",
      "transactionIndex": "0x19",
      "blockHash": "0xf7bb206c5b27110d2a34d7ee2e69d6d43e00e5a6625151a2620a50678cfed5af",
      "blockNumber": "0x1a07a08",
      "gasUsed": "0x2343d",
      "effectiveGasPrice": "0xba43b7401",
      "blobGasUsed": "0x72",
      "from": "0xc4cf543d4b8e94b3b454a233720252753b5d301f",
      "to": "0x91f8763b119ca7ec990eccd0db6a19ca13cafdda",
      "contractAddress": null,
      "daFootprintGasScalar": "0x1",
      "l1BaseFeeScalar": "0x0",
      "l1BlobBaseFee": "0xc73df21",
      "l1BlobBaseFeeScalar": "0x0",
      "l1Fee": "0x0",
      "l1GasPrice": "0xd03ec2a3",
      "l1GasUsed": "0x72a"
    },
    {
      "status": "0x1",
      "cumulativeGasUsed": "0x2eb9fb",
      "logs": [
        {
          "address": "0x91f8763b119ca7ec990eccd0db6a19ca13cafdda",
          "topics": [
            "0xcf1703a582c2d33aca5304d8715a8032f0db94e24a996a016453b343ea02d26b",
            "0x000000000000000000000000000000000000000000000000000000000000001a"
          ],
          "data": "0x0000000000000000000000000000000000000000000000000000000000000060000000000000000000000000000000000000000000000000000000006a344e400000000000000000000000000000000000000000000000000000000000000001000000000000000000000000000000000000000000000000000000000000002143726f6174696120746f20626561742042656c6769756d202847726f757020462900000000000000000000000000000000000000000000000000000000000000",
          "blockHash": "0xf7bb206c5b27110d2a34d7ee2e69d6d43e00e5a6625151a2620a50678cfed5af",
          "blockNumber": "0x1a07a08",
          "blockTimestamp": "0x6a21779c",
          "transactionHash": "0x318a5309e46f0617e3a028533865263b0da1fff4f98f76e7f2030fd181f9efb8",
          "transactionIndex": "0x1a",
          "logIndex": "0x19",
          "removed": false
        }
      ],
      "logsBloom": "0x00000000000000000000000000000000000000000000000000000000000000000008000000000000000000000000000020000000000000000000000000000000000000000000000000000000000000001000000000000000000000001000000000000000000000080000000000000000000000000000000000000000000000000000000000000000000000000000000000000000000000000000000000000000000000000000000000000000000000000000000000000000000000000080000000000000000000000000000000000000000000000000000000000000000000000000000000800000000000000000000000000000000004000000000000000001",
      "type": "0x2",
      "transactionHash": "0x318a5309e46f0617e3a028533865263b0da1fff4f98f76e7f2030fd181f9efb8",
      "transactionIndex": "0x1a",
      "blockHash": "0xf7bb206c5b27110d2a34d7ee2e69d6d43e00e5a6625151a2620a50678cfed5af",
      "blockNumber": "0x1a07a08",
      "gasUsed": "0x2343d",
      "effectiveGasPrice": "0xba43b7401",
      "blobGasUsed": "0x72",
      "from": "0xc4cf543d4b8e94b3b454a233720252753b5d301f",
      "to": "0x91f8763b119ca7ec990eccd0db6a19ca13cafdda",
      "contractAddress": null,
      "daFootprintGasScalar": "0x1",
      "l1BaseFeeScalar": "0x0",
      "l1BlobBaseFee": "0xc73df21",
      "l1BlobBaseFeeScalar": "0x0",
      "l1Fee": "0x0",
      "l1GasPrice": "0xd03ec2a3",
      "l1GasUsed": "0x72a"
    }
  ],
  "libraries": [],
  "pending": [],
  "returns": {},
  "timestamp": 1780578203425,
  "chain": 11142220,
  "commit": "6273808"
}